:020000040800F2
:1000000000000220755B0008054E0008074E00083E
:10001000094E00080B4E00080D4E000800000000BD
:10002000000000000000000000000000A113000814
:100030000F4E00080000000041140008A51400083D
:10004000C55B0008C55B0008C55B0008C55B000810
:10005000C55B0008C55B0008C55B0008C55B000800
:10006000C55B0008C55B0008C55B0008C55B0008F0
:10007000114E0008C55B0008214E0008C55B000852
:10008000C55B0008C55B0008314E0008C55B000871
:10009000C55B0008C55B0008C55B0008C55B0008C0
:1000A000554E0008654E0008C55B0008754E0008F7
:1000B000C55B0008854E0008C55B0008C55B0008ED
:1000C000C55B0008C55B0008C55B0008C55B000890
:1000D000C55B0008C55B0008C55B0008954E0008BD
:1000E000C55B0008C55B0008C55B0008C55B000870
:1000F000C55B0008C55B0008C55B0008C55B000860
:10010000C55B0008C55B0008C55B0008C55B00084F
:10011000C55B0008C55B0008A54E0008C55B00086C
:10012000C55B0008C55B0008C55B0008C55B00082F
:10013000C55B00080000000000000000C55B00086F
:10014000C55B0008C55B0008C55B0008C55B00080F
:10015000C55B0008C55B0008C55B0008C55B0008FF
:10016000C55B0008C55B0008C55B0008C55B0008EF
:10017000C55B0008C55B0008C55B00080000000007
:1001800000000000C55B0008000000000000000047
:10019000C55B00080000000000000000C55B00080F
:1001A000000000000000000000000000C55B000827
:1001B000C55B0008C55B0008C55B0008C55B00089F
:0401C000C55B000813
:1001D00053B94AB9002908BF00281CBF4FF0FF31AE
:1001E0004FF0FF3000F00CB8ADF1080C6DE904CE13
:1001F00005F05AFEDDF804E0DDE9022304B07047A3
:10020000704700BF10B5054C237833B9044B13B1C8
:100210000448AFF300800123237010BD600000206C
:1002200000000000A061000808B5034B1BB10349A2
:100230000348AFF3008008BD000000006400002008
:10024000A061000810B58CB00024089409940A94A9
:100250000B9420222146684605F0B5FC2048214B2E
:1002600003604FF48033436084600461047680F857
:100270002040C4621C4B8362C4600123C36180F8C8
:100280003040436101F08CFB00BB0A23089301233B
:10029000099300230A9308A9114801F053FDC0B93E
:1002A0000023009301220192049202934FF48012E2
:1002B000079206938DF815308DF814300393694634
:1002C000074801F09BFE38B90CB010BD00F092FF5A
:1002D000DBE700F08FFFE3E700F08CFFF4E700BFFF
:1002E0000C010020002001400100000F10B58CB06F
:1002F0000024089409940A940B942022214668460D
:1003000005F061FC2048214B03604FF480334360CB
:1003100084600461047680F82040C4621C4B8362D0
:10032000C4600123C36180F83040436101F038FBB1
:1003300000BB092308930123099300230A9308A90A
:10034000114801F0FFFCC0B901230093019304930D
:10035000002302934FF48012079206938DF8153014
:100360008DF8143003936946074801F047FE38B909
:100370000CB010BD00F03EFFDBE700F03BFFE3E711
:1003800000F038FFF4E700BFC40000200021014066
:100390000100000F10B58CB00024089409940A9451
:1003A0000B9420222146684605F00DFC2048214B85
:1003B00003604FF48033436084600461047680F806
:1003C0002040C4621C4B8362C4600123C36180F877
:1003D0003040436101F0E4FA08BB03230893012392
:1003E000099300230A9308A9114801F0ABFCC8B98E
:1003F00002230093012301930493002302934FF4FB
:100400008012079206938DF815308DF814300393FF
:100410006946074801F0F2FD38B90CB010BD00F094
:10042000E9FEDAE700F0E6FEE2E700F0E3FEF4E7DB
:100430007C000020002201400100000FF0B58FB0C9
:10044000002309930A930B930C930D930368524A6C
:10045000934207D0514A93423DD0514A934273D0C0
:100460000FB0F0BD002401944E4B5A6C42F48072E0
:100470005A645A6C02F480720192019A02941A6BC7
:1004800042F004021A631A6B02F004020292029A0A
:1004900003941A6B42F001021A631B6B03F0010311
:1004A0000393039B0127099703260A9609AD294662
:1004B0003D4802F015FA09970A960B9429463B48E5
:1004C00002F00EFA22460521122001F095FF1220BB
:1004D00001F0A2FFC4E700240494324B5A6C42F4AA
:1004E00000725A645A6C02F400720492049A0594E1
:1004F0001A6B42F001021A631A6B02F001020592B4
:10050000059A06941A6B42F002021A631B6B03F001
:1005100002030693069B0227099703260A9609AD54
:100520002946224802F0DCF909970A960B942946DD
:100530001F4802F0D5F922460521122001F05CFF88
:10054000122001F069FF8BE700240794154B5A6CC9
:1005500042F480625A645A6C02F480620792079AED
:1005600008941A6B42F001021A631B6B03F001033B
:100570000893089B0C23099303230A9309A90B48AA
:1005800002F0AEF922460521122001F035FF1220BB
:1005900001F042FF64E700BF00200140002101405C
:1005A00000220140003802400008024000000240E2
:1005B0000004024008B50B480B4B03601023436056
:1005C00000238360C36003614361037643768376CF
:1005D000C3760377437701F015FE00B908BD00F03C
:1005E00009FEFBE7540100200064004000B589B01B
:1005F0000023039304930593069307930268154B16
:100600009A4202D009B05DF804FB0021019103F584
:10061000EA331A6C42F000721A641A6C02F000722B
:100620000192019A02911A6B42F002021A631B6B4B
:1006300003F002030293029B4FF4407303930223DF
:100640000493032306930923079303A9024802F0A6
:1006500047F9D7E70064004000040240842801D035
:10066000033070470020704708B504F029FE0020D1
:1006700008BD2DE9F04387B00E464469C4B18569D1
:10068000B5B14768D0F80080D0F81090B0F90800F4
:10069000FFF7E4FF02950194009033464A46414635
:1006A000384604F09FFD0590059807B0BDE8F0833B
:1006B000446805680769B0F90800FFF7CFFF05AB8C
:1006C000019300903346BAB22946204604F0C5FD96
:1006D0000128E9D00020E8E708B500B9012004F0BE
:1006E00039FF002008BD0000F0B587B000F072F9B6
:1006F000344C00224FF40051204602F0E1F9002270
:100700004FF48041204602F0DBF900224FF4004113
:10071000204602F0D5F92C4E2C49304600F0F2F973
:10072000304600F09BFA0A2001F08CF8012505956F
:1007300000240494039402940194009523462A46CD
:100740002146304600F010FA0A2001F07BF803271A
:1007500005970495039502950194009723462A4630
:100760002146304600F042FA0A2001F06BF8059766
:100770000494039402940195009723462A46214647
:10078000304600F033FA0A2001F05CF80F230193A1
:1007900000973B4622462946304600F010FA304684
:1007A00000F04FFA0A2001F04DF800F0FBF805F0D8
:1007B000D9F900F02DFF00F041FB284600F092FF30
:1007C00007B0F0BD000402407C0100208C420020F4
:1007D00008B504F031FF08BD08B503685B4A9342D1
:1007E00013D05B4A934240D05A4A93426DD05A4A42
:1007F00012784AB1594A127832B1594A12781AB16C
:10080000524A934200F0928008BD564A1268D2EDD7
:100810000F7AF8EE677A504A1278C2B9524A92EDCE
:10082000007A77EE877AC2ED007A50490A88013261
:1008300012B20A80642ADAD1DFED4D6A87EEA67A19
:10084000494A82ED007A444A01211170CFE7464AB5
:1008500092ED007A77EEC77A464A92ED007A67EE1B
:10086000877A454AC2ED007AC1E7444A1268D2ED60
:100870000F7AF8EE677A394A1278C2B9404A92ED97
:10088000007A77EE877AC2ED007A3E490A88013213
:1008900012B20A80642AAAD1DFED356A87EEA67A01
:1008A000374A82ED007A2D4A012111709FE7344AC0
:1008B00092ED007A77EEC77A2E4A92ED007A67EED3
:1008C000877A314AC2ED007A91E7304A1268D2ED58
:1008D0000F7AF8EE677A224A1278CAB92C4A92ED5A
:1008E000007A77EE877AC2ED007A2A490A880132C7
:1008F00012B20A80642A7FF47AAFDFED1D6A87EEB8
:10090000A67A234A82ED007A154A012111706EE71A
:100910001F4A92ED007A77EEC77A164A92ED007A76
:1009200067EE877A1C4AC2ED007A60E74FF4005107
:100930001A4802F0CBF81A4B0F4A12681A60124A92
:1009400012685A60144A12689A605DE700200140FC
:100950000021014000220140960100209501002065
:10096000940100200C010020B0010020840100202F
:100970000000C842A4010020A0010020C400002003
:10098000AC010020820100209C0100207C0000209E
:10099000A8010020800100209801002000080240EA
:1009A0008801002008B5064B064A1A60064801F087
:1009B0009FFA064801F09CFA054801F099FA08BD33
:1009C000A40100200000843B0C010020C400002092
:1009D0007C00002008B54FF480720249024804F000
:1009E000CDF908BDB4010020B0450020B1F5807FED
:1009F0000DD838B50C46074D0A460146284605F085
:100A000015F922462946044803F0A8FE38BD4FF0E8
:100A1000FF307047B4020020B0450020704700004E
:100A20000368124A934200D0704700B583B0002299
:100A300000921968009159680091009901921A6812
:100A400001925B680193019B202380F842304FF4B0
:100A50008072074904F0A4F9064B1A68136823F062
:100A60000803136003B05DF804FB00BF00480040BA
:100A7000B4010020F044002010B582B0002401949D
:100A80000D4B1A6B42F400121A631B6B03F4001334
:100A90000193019B224605210C2001F0ADFC0C20A6
:100AA00001F0BAFC224605210E2001F0A5FC0E2023
:100AB00001F0B2FC02B010BD0038024030B587B082
:100AC0000446ADF80E100E4D00220421284601F018
:100AD000F7FF0A2000F0B6FE4FF47A73009301236B
:100AE0000DF116020DF10E01206802F0D4FD012275
:100AF0000421284601F0E4FFBDF8160007B030BD20
:100B0000000C024010B501600E4C00224FF48071C1
:100B1000204601F0D5FF01228021204601F0D0FFC0
:100B20000A2000F08FFE01224FF48071204601F070
:100B3000C7FF00228021204601F0C2FF0A2000F0FA
:100B400081FE10BD0008024008B56FEA01716FEA2E
:100B5000514189B2FFF7B2FF08BD08B542EAC12191
:100B600089B2FFF7ABFF08BD08B5490241F48051D7
:100B700009B241EA022109B241EAC3131BB2BDF82E
:100B8000082043EA42131BB2BDF80C2043EA0213CB
:100B90001BB2BDF8102043EAC2031BB2BDF81420FB
:100BA00043EA82031BB2BDF8182043EA42031BB29A
:100BB000BDF81C10194389B2FFF780FF08BD08B5C6
:100BC000890241F4205109B241EA022109B241EA05
:100BD00083131BB2BDF8082043EA02131BB2BDF811
:100BE0000C10194389B2FFF769FF08BD08B58902E7
:100BF00041F4405109B241EA422109B241EA0323DA
:100C00001BB2BDF8082043EA82131BB2BDF80C20CA
:100C100043EA42131BB2BDF8102043EA02131BB291
:100C2000BDF8142043EAC2031BB2BDF8182043EA02
:100C300082031BB2BDF81C10194389B2FFF73EFFB7
:100C400008BD10B504460221FFF77EFF20F0040224
:100C500092B202212046FFF780FF10BD08B54FF485
:100C600000620621FFF779FF08BD08B5FFF7B0FD68
:100C70000A20FFF731FDF9E708B500F069FD6420AF
:100C8000FFF72AFDF9E70000034B0360034B0B60FD
:100C900080231360704700BFB4050020B403002018
:100CA00010B58EB0124C0DF11C0CA646BEE80F001C
:100CB000ACE80F009EE807008CE80700002107A8B9
:100CC000FFF7D7FC0B4B1860EE4604F11C0CBCE898
:100CD0000F00AEE80F009CE807008EE80700002137
:100CE0006846FFF7C6FC044B18600EB010BD00BF8D
:100CF000B86100080C060020080600202DE9F04726
:100D00008AB005AD002405940694079408940994CC
:100D10000094454B1A6B42F004021A631A6B02F0FE
:100D200004020092009A01941A6B42F080021A6346
:100D30001A6B02F080020192019A02941A6B42F03F
:100D400001021A631A6B02F001020292029A0394E2
:100D50001A6B42F002021A631A6B02F0020203924B
:100D6000039A04941A6B42F008021A631B6B03F097
:100D700008030493049B2D4F224642F2CE113846BD
:100D800001F09EFEDFF8A8A0224648F2200150465E
:100D900001F096FEDFF89C8022464EF2200140468C
:100DA00001F08EFEDFF8909001220421484601F008
:100DB00087FE01220821404601F082FE42F2CE1356
:100DC000059301260696079408942946384601F0B3
:100DD00087FD48F220030593069607940894294658
:100DE000504601F07DFD4EF22803059306960794C8
:100DF00008942946404601F073FD4FF400730593B3
:100E00004FF48813069307942946384601F068FD8D
:100E1000042305930696079408942946484601F052
:100E20005FFD0AB0BDE8F0870038024000080240CC
:100E30000000024000040240000C024008B50248D5
:100E400003F03CFA08BD00BF6044002008B508214B
:100E50000148FFF7CBFD08BD08620008124A12F0F6
:100E6000070F1ED0D11D21F00701C1F570531344A7
:100E70000A460E480260002141601344083B23F0FB
:100E800007030B48036059601960991A5160136099
:100E9000084B1960084B1960084B4FF000421A606C
:100EA00070474FF47053E4E7300600202806002016
:100EB000240600201C06002020060020100600202A
:100EC000164B1A461B688342FBD3516802EB010C98
:100ED000844509D0416800EB010C634509D00360EB
:100EE000904219D01060704740680144516010462C
:100EF000F0E710B40A4C2468A3420BD05B68194495
:100F0000416013681B680360904200D010605DF878
:100F1000044B70470460F7E7704700BF28060020C5
:100F20002406002038B5044604F004FA384B1B6848
:100F3000B3B1384B1B681C4250D1002C50D004F187
:100F4000080214F0070F02D022F007020832002A2C
:100F500055D0314B1B68934253D330490C6804E0A1
:100F6000FFF77CFFE5E721461C466368934202D207
:100F70002368002BF7D1264B1B68A34243D00D6892
:100F8000083523680B6063689B1A102B10D9A018D2
:100F900010F0070F08D04FF0500383F31188BFF310
:100FA0006F8FBFF34F8FFEE743606260FFF788FFEC
:100FB000626819490B689B1A0B60194909688B42D2
:100FC00001D217490B60134B1B6813436360002366
:100FD0002360144A13680133136002E0002500E027
:100FE000002504F03BFA15F0070F0ED04FF0500328
:100FF00083F31188BFF36F8FBFF34F8FFEE7002598
:10100000EFE70025EDE70025EBE7284638BD00BFF8
:1010100024060020100600202006002028060020BC
:101020001C06002018060020002834D038B50446DD
:10103000A0F1080550F8043C174A1268134208D181
:101040004FF0500383F31188BFF36F8FBFF34F8FBF
:10105000FEE750F8081C41B14FF0500383F31188AC
:10106000BFF36F8FBFF34F8FFEE723EA020340F811
:10107000043C04F05FF954F8041C084A13680B445C
:1010800013602846FFF71CFF054A136801331360FD
:1010900004F0E4F938BD7047100600202006002057
:1010A0001406002008B50B480B4B03600B4B436044
:1010B00000238360C3604FF4804202614361836117
:1010C000C361036201F00CFD00B908BD00F092F8A5
:1010D000FBE700BF3042002000540040A086010022
:1010E00030B589B0002303930493059306930793C7
:1010F0000268144B9A4201D009B030BD0025019519
:10110000114C236B43F002032363236B03F00203B0
:101110000193019BC023039312230493032306939B
:101120000423079303A9094801F0DAFB0295236C15
:1011300043F400132364236C03F400130293029B13
:10114000DAE700BF005400400038024000040240CB
:1011500000F1080343604FF0FF328260C360036117
:1011600000230360704700230361704743684B60AE
:101170009A688A605160996008610368013303606E
:10118000704730B40D68B5F1FF3F11D000F108038E
:101190001C465B681A68AA42FAD963684B6099607A
:1011A0008C606160086103680133036030BC704784
:1011B0000469F2E70369416882688A6041685160A6
:1011C0005A68824206D0002202611A68013A1A6007
:1011D0001868704782685A60F5E7000008B5026831
:1011E000034B9A4200D008BD00F01AFBFBE700BF9A
:1011F0000010004072B6FEE710B594B007AC342280
:101200000021204604F0DFFC0023029303930493A3
:10121000059306930093204A116C41F080511164AC
:10122000126C02F080520092009A01931B4B1A68D4
:1012300042F440421A601B6803F440430193019B4F
:10124000012307934FF48033089302230D934FF447
:1012500080020E9208220F92A022109211931293F4
:101260001393204601F0F2FE90B90F23029302235C
:101270000393002304934FF4A05305934FF480533A
:101280000693052102A801F02BFD18B914B010BD7A
:10129000FFF7B0FFFFF7AEFF0038024000700040DC
:1012A00008B500F0A3FAFFF7A7FFFFF727FDFFF748
:1012B000E3FBFFF77FF904F003FBFEF7C3FFFFF743
:1012C00015F8FFF767F8FFF7EDFE00F0B3F904F04B
:1012D00093FB04F0F5F9642000F0B4FAFFF704FA88
:1012E000FFF7DEFCFFF7C0F9FEE7000082B0002345
:1012F00001930D4B1B68B3F1FF3F08D04FF0500333
:1013000083F31188BFF36F8FBFF34F8FFEE74FF06A
:10131000500383F31188BFF36F8FBFF34F8F019B8F
:10132000002BFCD002B07047000000200848006885
:10133000006880F308884FF0000080F3148862B6DC
:1013400061B6BFF34F8FBFF36F8F00DF00BF0000A8
:1013500008ED00E0DFF80C00016841F47001016065
:101360007047000088ED00E04FF0807340F8043CC7
:1013700021F0010140F8081C054B40F80C3C40F8F6
:10138000202C6FF0020340F8243C4438704700BF23
:10139000ED12000800000000000000000000000046
:1013A000074B19680868B0E8F04F80F30988BFF36D
:1013B0006F8F4FF0000080F311887047AFF300800B
:1013C0005C4400204FF0500383F31188BFF36F8F0C
:1013D000BFF34F8F0B4A136801331360012B00D00A
:1013E00070474FF0E023D3F8043D13F0FF0FF7D020
:1013F0004FF0500383F31188BFF36F8FBFF34F8F0C
:10140000FEE700BF00000020094B1B6843B94FF006
:10141000500383F31188BFF36F8FBFF34F8FFEE745
:10142000013B034A13600BB983F31188704700BF77
:10143000000000200000000000000000000000008C
:10144000EFF30980BFF36F8F154B1A681EF0100F72
:1014500008BF20ED108A20E9F04F10602DE9090047
:101460004FF0500080F31188BFF34F8FBFF36F8FA1
:1014700004F096F84FF0000080F3118809BC196859
:101480000868B0E8F04F1EF0100F08BFB0EC108AEB
:1014900080F30988BFF36F8F704700BFAFF3008000
:1014A0005C44002008B54FF0500383F31188BFF36C
:1014B0006F8FBFF34F8F03F045FF28B14FF0E0234C
:1014C0004FF08052C3F8042D002383F3118808BD28
:1014D0004FF0E022002313619361054B1B6805491F
:1014E000A1FB03139B09013B536107231361704761
:1014F0000C000020D34D62104FF0E023D3F8002DF4
:101500003D4B9A421CD04FF0E023D3F8002D3B4BCB
:101510009A421ED030B583B0394B1A78D2B20192BC
:10152000FF221A701B78DBB28DF803309DF8033070
:1015300003F05003334A1370334B07221A601BE049
:101540004FF0500383F31188BFF36F8FBFF34F8FBA
:10155000FEE74FF0500383F31188BFF36F8FBFF3A3
:101560004F8FFEE7284A1368013B13609DF8033054
:101570005B00DBB28DF803309DF8033013F0800F71
:10158000F0D1214B1B68032B08D04FF0500383F39D
:101590001188BFF36F8FBFF34F8FFEE71B021A4A0C
:1015A000136003F4E0631360019BDBB2144A137011
:1015B0004FF0E024D4F8203D43F47003C4F8203DFC
:1015C000D4F8203D43F07043C4F8203DFFF780FF7E
:1015D00000250E4B1D60FFF7BDFED4F8343F43F0ED
:1015E0004043C4F8343FFFF7A1FE03F0D9FFFFF7F3
:1015F0007DFE284603B030BD71C20F4170C20F415D
:1016000000E400E088420020844200200000002026
:1016100008B5064B41F63F72DA6241F63E721A6433
:101620000C21034802F062FD08BD00BF000001402C
:10163000A844002008B50D480D4B03604FF4827399
:10164000436000238360C360036143614FF4007211
:101650008261C3610362436283620A23C36201F051
:10166000BBFF00B908BDFFF7C5FDFBE78C420020BA
:10167000003C004000B589B0002303930493059318
:10168000069307930268154B9A4202D009B05DF8A1
:1016900004FB0021019103F5FE331A6C42F4004271
:1016A0001A641A6C02F400420192019A02911A6BB8
:1016B00042F004021A631B6B03F004030293029BC3
:1016C0004FF4E0530393022304930323069306236A
:1016D000079303A9024801F003F9D7E7003C004053
:1016E00000080240014B1870704700BFE54200201F
:1016F00010B5044610F0010F15D000220821134840
:1017000001F0DEF914F0020F13D0002204210F487B
:1017100001F0D6F914F0040F11D0002202210B4879
:1017200001F0CEF910BD01220821084801F0C8F9E6
:10173000E8E701220421054801F0C2F9EAE70122A5
:101740000221024801F0BCF9ECE700BF00080240AA
:1017500008B5234B1B78042B09D8DFE803F00325D9
:101760002B093B0007201F4B1870FFF7C1FF08BD76
:101770001C4B1878FFF7BCFF1B4B1B7853B9194A59
:1017800013785B00DBB21370042BF0D1164B0122EF
:101790001A70ECE7134A13785B081370012BE6D13B
:1017A000114B00221A70E2E704200E4B1870FFF76D
:1017B0009FFFDCE70B4B1B78012B07D0094B012265
:1017C0001A70084B1878FFF793FFD0E7054B0022FB
:1017D0001A70F6E70220034B1870FFF789FFC6E77F
:1017E000E542002004000020E442002008B50B4B35
:1017F0001A6842F400721A601A6842F480621A6031
:101800001A6842F480721A60032000F0E3FD0F2092
:1018100002F02CFE01F042FA002008BD003C02401C
:10182000034A1168034B1B780B441360704700BFD9
:10183000E842002005000020014B1868704700BFF7
:10184000E842002038B50446FFF7F6FF0546B4F13C
:10185000FF3F02D0044B1B781C44FFF7EDFF401BF9
:10186000A042FAD338BD00BF050000204A4B5A6899
:1018700022F440325A605A6841680A435A6002684A
:10188000536823F48073536002685368016943EA24
:10189000012353600268536823F040735360026869
:1018A000536881680B4353600268936823F40063B4
:1018B000936002689368C1680B439360826A374BF8
:1018C0009A4257D00268936823F07063936002686D
:1018D0009368816A0B4393600268936823F04053D6
:1018E000936002689368C16A0B43936002689368CF
:1018F00023F00203936002689368017E43EA410388
:10190000936090F82030002B3FD00268536843F476
:10191000006353600268536823F4604353600168B6
:101920004B68426A013A43EA42334B600268D36A29
:1019300023F47003D3620168CB6AC269013A43EAB7
:101940000253CB620268936823F4007393600268C9
:10195000936890F8301043EA4123936002689368DB
:1019600023F48063936002689368416943EA8123AA
:10197000936070470268936823F070639360026815
:10198000936823F040539360B0E70268536823F4F0
:1019900000635360CAE700BF002301400100000F4D
:1019A00038B310B50446036C43B1236C13F0100F29
:1019B0000BD00120002384F83C3010BDFEF73EFD23
:1019C0000023636484F83C30EFE7236C23F48853EE
:1019D00023F0020343F0020323642046FFF746FF8F
:1019E00000206064236C23F0030343F001032364AD
:1019F000E0E701207047000082B00023019390F8D7
:101A00003C30012B00F08980012380F83C300368D2
:101A10009A6812F0010F13D19A6842F001029A609D
:101A2000414B1B68414AA2FB03239B0C03EB43037E
:101A3000019302E0019B013B0193019B002BF9D133
:101A40000268936813F0010F5CD0036C23F4E06329
:101A500023F0010343F480730364536813F4806F2D
:101A600005D0036C23F4405343F480530364036CA8
:101A700013F4805F1BD0436C23F006034364002300
:101A800080F83C306FF022031360294B5B6813F041
:101A90001F0F27D10368274A934211D002F58072A5
:101AA000934207D0244A934214D0002033E000230D
:101AB0004364E4E702F50072526812F01F0FF1D19F
:101AC0009A6812F0405F2AD19A6842F080429A6088
:101AD000002020E002F58072526812F0100FEFD063
:101AE000002018E00368134A934201D0002012E05E
:101AF0009A6812F0405F14D19A6842F080429A606E
:101B0000002008E0036C43F010030364436C43F0CF
:101B100001034364002002B070470220FBE700206D
:101B2000F9E70020F7E700BF0C00002083DE1B432D
:101B300000230140002001400022014070B504460E
:101B40000D4603689A6812F4806F03D09B6813F403
:101B5000807F19D1FFF770FE064623681A6812F0DD
:101B6000020F20D1B5F1FF3FF7D0B5B923681B684C
:101B700013F0020FF1D1236C43F00403236400231C
:101B800084F83C30032032E0036C43F0200303640C
:101B9000002380F83C30012029E0FFF74DFE801B38
:101BA000A842DAD9E2E76FF012021A60236C43F41C
:101BB0000073236423689A6812F0405F16D1207E78
:101BC000B0B9DA6A12F4700F03D09B6813F4806F17
:101BD0000DD1236C23F480732364236C13F4805F92
:101BE00005D1236C43F00103236400E0002070BDA5
:101BF0000020FCE70368D86C704770477047704757
:101C000070B5044603681E685D6816F0020F2FD099
:101C100005F0200262B3026C12F0100F03D1026CC7
:101C200042F4007202649A6812F0405F19D1227E79
:101C3000BAB9DA6A12F4700F03D09A6812F4806F9E
:101C40000FD15A6822F020025A60236C23F480736B
:101C50002364236C13F4805F03D1236C43F00103EE
:101C600023642046FFF7C9FF23686FF012021A6051
:101C700005F0800316F0040F37D0002B35D0236C0D
:101C800013F0100F03D1236C43F400532364236833
:101C90009A6812F4401F21D19A6B12F4401F03D0AE
:101CA0009A6812F4806F19D15A6812F4806F15D1B6
:101CB0009A6812F0405F11D1227E7AB95A6822F0F8
:101CC00080025A60236C23F480532364236C13F442
:101CD000807F03D1236C43F0010323642046FEF789
:101CE0007BFD23686FF00C021A6005F0400316F0CC
:101CF000010F05D023B123681B6813F0010F06D133
:101D000005F0806516F0200F00D065B970BD236C1A
:101D100043F4803323642046FFF770FF23686FF09D
:101D200001021A60ECE7636C43F00203636423680A
:101D30006FF020051D602046FFF761FF23681D60DE
:101D4000E4E7000030B482B00022019290F83C2019
:101D5000012A00F0C0800346012280F83C200A6876
:101D6000092A40D90468E06892B202EB42021E3AA6
:101D70004FF0070C0CFA02F220EA0202E2601C6843
:101D8000E0680A8802EB42021E3A8D6805FA02F208
:101D90000243E2604A68062A3CD81C68606B02EB8A
:101DA0008202053A4FF01F0C0CFA02F220EA0202FE
:101DB00062631C68606B4A6802EB8202053AB1F804
:101DC00000C00CFA02F2024362631868434A904270
:101DD00050D01868414A904259D0002083F83C0006
:101DE00002B030BC70470468206992B202EB420234
:101DF0004FF0070C0CFA02F220EA020222611C6882
:101E000020690A8802EB42028D6805FA02F2024359
:101E10002261BFE70C2A16D81D68286B02EB8202EC
:101E2000233A1F2404FA02F220EA02022A631D6800
:101E3000286B4A6802EB8202233A0C8804FA02F209
:101E400002432A63C1E71D68E86A02EB8202413A55
:101E50001F2404FA02F220EA0202EA621D68E86A1C
:101E60004A6802EB8202413A0C8804FA02F2024309
:101E7000EA62AAE70A68122AABD1194A506820F42C
:101E800000005060506840F480005060A1E70A688C
:101E90001448824201D0112A9FD1114A506820F47F
:101EA00080005060506840F40000506009680D4A9E
:101EB000914292D10C4A12680C49A1FB0212920C79
:101EC00002EB820252000192019A002A85D0019A07
:101ED000013A0192F8E7022082E700BF00200140AA
:101EE00000230140120000100C00002083DE1B4381
:101EF00082B00023019390F83C30012B6CD0012379
:101F000080F83C3003689A6812F0010F13D19A6888
:101F100042F001029A60354B1B68354AA2FB03234D
:101F20009B0C03EB4303019302E0019B013B0193F4
:101F3000019B002BF9D10268936813F0010F40D088
:101F4000036C23F4405323F0010343F480530364F0
:101F5000036C13F4807F01D100234364002380F8D5
:101F60003C306FF0040313600268536843F0800351
:101F70005360204B5B6813F01F0F0ED1026891680D
:101F8000536803F4806311F4401F27D143BB936867
:101F900043F48003936000201CE003689A6802F415
:101FA0004012596801F480611348834201D0002037
:101FB00010E0BAB9C1B99A6842F480029A60002070
:101FC00008E0036C43F010030364436C43F0010327
:101FD0004364002002B070470220FBE70020F9E7CD
:101FE0000020F7E70020F5E70020F3E70C000020D1
:101FF00083DE1B43002301400020014090F83C2079
:10200000012A00F0F48030B40346012280F83C201D
:102010000A68092A40F289800568E86892B202EBF2
:1020200042021E3A072404FA02F220EA0202EA609F
:102030001D68E8688C680A8802EB42021E3A9440E8
:102040002043E8601868826B22F4401282631C68A7
:10205000A26B0869013842EA0052A2631C68A06BB7
:102060004A680D69521BD2B20332D2B202EB82022D
:102070004FF01F0C0CFA02F220EA0202A2631C6865
:10208000A06B4A680D69521BD2B20332D2B202EB86
:102090008202B1F800C00CFA02F20243A26388691E
:1020A000544A904256D01868826822F470228260A6
:1020B000186882688C69224382601868826822F4FA
:1020C0004012826018688268CC69224382604A7D2F
:1020D000002A4AD01868426842F4806242600A7D51
:1020E000002A48D01868426842F4805242604A6828
:1020F000022A46D0032A4FD0012A58D118684269D3
:102100006FF30B02426118684269CC682243426156
:102110001868394A904255D01868374A90425AD0C8
:10212000002083F83C0030BC70470568286992B2F3
:1021300002EB4202072404FA02F220EA02022A61B8
:102140001D6828698C680A8802EB4202944020438B
:10215000286177E71868826822F470228260186824
:10216000826822F440128260B1E71868426822F463
:1021700080624260B3E71868426822F4805242608D
:10218000B5E7186882696FF30B028261186882698B
:10219000CC6822438261BBE71868C2696FF30B0207
:1021A000C2611868C269CC682243C261B0E718688E
:1021B000026A6FF30B0202621868026ACC6822435B
:1021C0000262A5E70A68122AA6D10C48426842F4C6
:1021D00080024260A0E70A6809498A4201D0112AB8
:1021E0009ED106494A6842F400024A6098E70220FC
:1021F000704700BF01000F00002001400023014094
:1022000012000010002800F0A18038B5044690F8B4
:102210002030D3B12268136843F001031360FFF745
:102220000BFB054623685A6812F0010F10D1FFF727
:1022300003FB401B0A28F5D9636A43F40033636249
:10224000052384F82030012038BDFEF7CFF9E1E7FF
:102250001A6822F002021A60FFF7EEFA05462368B8
:102260005A6812F0020F0DD0FFF7E6FA401B0A2859
:10227000F5D9636A43F400336362052384F82030A0
:102280000120E1E7227E012A3DD01A6822F0800277
:102290001A60637E012B3BD02268136823F0400351
:1022A0001360A37E012B39D02268136823F020032A
:1022B0001360E37E012B37D02268136843F01003CC
:1022C0001360237F012B35D02268136823F00803A5
:1022D0001360637F012B33D02268136823F004035B
:1022E0001360A368E26813432269134362691343CE
:1022F0006268013A21681343CB61002060620123C8
:1023000084F82030A0E71A6842F080021A60C0E723
:102310002268136843F040031360C2E72268136821
:1023200043F020031360C4E72268136823F010030E
:102330001360C6E72268136843F008031360C8E718
:102340002268136843F004031360CAE70120704752
:10235000002807DB00F01F02400901239340024AD6
:1023600042F82030704700BF00E100E0002808DBA1
:102370000901C9B200F1604000F5614080F8001326
:10238000704700F00F000901C9B2014B19547047A2
:1023900014ED00E000B500F00700C0F1070CBCF13F
:1023A000040F28BF4FF0040C031D062B0FD9C31ECA
:1023B0004FF0FF3E0EFA0CF021EA000199400EFAB0
:1023C00003FE22EA0E0241EA02005DF804FB00234C
:1023D000EEE70000074AD36823F4E0631B041B0CFC
:1023E000000200F4E060034343F0BF6343F40033B2
:1023F000D360704700ED00E010B50446054BD86887
:10240000C0F30220FFF7C6FF01462046FFF7AEFFEC
:1024100010BD00BF00ED00E008B5FFF799FF08BD53
:1024200030B405682C6824F480242C600468636050
:102430008368402B05D0036899600368DA6030BC7C
:10244000704703689A600368D960F8E710B40368BE
:10245000D9B210390A4AA2FB01421209094CA25C06
:10246000C2655F2907D96FF3090304338365806D63
:102470005DF8044B70476FF309038365F7E700BF0E
:10248000ABAAAAAA18620008836A826992B9012BD2
:102490000AD0022B02D00BB100207047C36A13F0A0
:1024A000807F28D100207047C36AB3F1C07F24D059
:1024B00000207047B2F5005F09D0022B25D9032B0D
:1024C00025D1C36A13F0807F23D100207047032BEE
:1024D00003D8DFE803F01404140A00207047C36A2D
:1024E00013F0807F0DD100207047C36AB3F1C07F25
:1024F00009D000207047012070470120704701205B
:10250000704701207047012070470120704700206C
:10251000704701207047000070B50446FFF78CF942
:10252000002C5BD00546022384F83530002384F864
:1025300034302268136823F00103136023681A689B
:1025400012F0010F0AD0FFF777F9431B052BF5D9DD
:1025500020236365032084F8350070BD1A68204984
:1025600011406268A0680243E068024320690243A8
:1025700060690243A0690243E0690243206A0243A2
:102580000A43616A04291ED01A602668756925F01D
:102590000705636A1D43042B07D1A36A1D43E36A41
:1025A0001BB12046FFF770FF90B975612046FFF719
:1025B0004DFFE26D3F23934083600020606501235F
:1025C00084F83530C9E7E16A206B01430A43DBE751
:1025D00040236365012084F83500BEE70120BCE795
:1025E0003F8010F038B50446856D90F8340001281E
:1025F0002AD0012084F8340094F83500012804D052
:10260000002384F83430022038BD022084F83500DD
:10261000002060652046FFF703FFE26D3F239340F3
:10262000AB602268136843F016031360236C23B178
:102630002268136843F0080313602268136843F0AC
:10264000010313600020DFE70220DDE770B50446D8
:10265000866DFFF7F1F894F83530022B06D0802311
:102660006365002384F83430012070BD054622687C
:10267000136823F0160313602268536923F0800364
:102680005361236CE3B12268136823F008031360DD
:102690002268136823F00103136023681B6813F09A
:1026A000010F11D0FFF7C8F8431B052BF5D92023E4
:1026B0006365032084F83500002384F83430D4E7C0
:1026C000A36C002BDFD1E3E7E26D3F239340B360BF
:1026D000012384F83530002084F83400C5E790F8F1
:1026E0003530022B03D0802343650120704705233A
:1026F00080F835300268136823F00103136000206E
:1027000070470000F0B583B0044600230193724B7C
:102710001D68724BA3FB0535AD0A876D3E68C26D1F
:1027200008239340334210D003681A6812F0040F54
:102730000BD01A6822F004021A60C26D082393407D
:10274000BB60436D43F001034365E26D0123934099
:10275000334209D02268526912F0800F04D0BB6066
:10276000636D43F002036365E26D042393403342DB
:1027700009D02268126812F0020F04D0BB60636DAA
:1027800043F004036365E26D10239340334224D089
:102790002268126812F0080F1FD0BB6023681A6805
:1027A00012F4802F0DD01B6813F4002F04D1236C7A
:1027B0009BB12046984710E0A36C73B12046984720
:1027C0000BE01A6812F4807F03D11A6822F0080225
:1027D0001A60236C0BB120469847E26D202393408A
:1027E000334254D02268126812F0100F4FD0BB60F1
:1027F00094F83530052B0ED023681A6812F4802F18
:1028000033D01B6813F4002F2AD1636C002B3ED009
:10281000204698473BE02268136823F016031360B4
:102820002268536923F080035361236CA3B12268AB
:10283000136823F008031360E26D3F239340BB60ED
:10284000012384F83530002384F83430236D002BC5
:102850003FD0204698473CE0A36C002BE7D1EBE744
:10286000E36BA3B12046984711E01A6812F4807F09
:1028700009D11A6822F010021A60012384F8353059
:10288000002384F83430E36B0BB120469847636D26
:10289000FBB1636D13F0010F17D0052384F83530B9
:1028A0002268136823F001031360019B0133019335
:1028B000AB4204D823681B6813F0010FF5D1012344
:1028C00084F83530002384F83430E36C0BB12046B3
:1028D000984703B0F0BD00BF0C000020B5814E1B2F
:1028E00000230F2B00F2E38070B582B065E08568AD
:1028F0004FEA430E032404FA0EF425EA0405CC68DB
:1029000004FA0EF42C438460446824EA02044A6802
:10291000C2F300129A40224342605CE0DC080834B3
:1029200050F8242003F00705AD004FF00F0E0EFA0B
:1029300005FE22EA0E0E0A69AA4042EA0E0240F89B
:1029400024205CE0062200E0002202FA0EF22A4374
:102950000234574D45F82420564A94686FEA0C0219
:1029600024EA0C054E6816F4801F01D04CEA0405D9
:10297000504CA560E46802EA04054E6816F4001F96
:1029800001D04CEA04054B4CE560646802EA04059A
:102990004E6816F4003F01D04CEA0405454C6560D2
:1029A000246822404D6815F4803F01D04CEA0402AF
:1029B000404C226001330F2B77D801229A400C68DB
:1029C00004EA020C32EA0404F4D14C6804F0030473
:1029D000013C012C8BD94A6802F00302032A09D07A
:1029E000C4685D000322AA4024EA02048A68AA405F
:1029F0002243C2604A6802F00302022A8ED00468B1
:102A00004FEA430E032202FA0EF224EA02044A6855
:102A100002F0030202FA0EF2224302604A6812F444
:102A2000403FC7D000220192234A546C44F48044B2
:102A30005464526C02F480420192019A9C08A51CD5
:102A40001B4A52F8255003F0030E4FEA8E0E0F2258
:102A500002FA0EF225EA0205184A90423FF474AFDA
:102A600002F58062904216D002F58062904214D046
:102A700002F58062904212D002F58062904210D03E
:102A800002F5806290420ED002F5806290423FF4DF
:102A900059AF072259E7012257E7022255E70322DF
:102AA00053E7042251E705224FE702B070BD70479B
:102AB00000380140003C0140003802400000024064
:102AC0000AB181617047090481617047436901EA75
:102AD000030221EA030141EA0241816170470000DB
:102AE000002800F0CC8070B5044690F83D30002BF3
:102AF00077D0242384F83D302268136823F0010343
:102B000013602268136843F400431360226813685B
:102B100023F40043136000F099F962685A4B9A421B
:102B200064D85A4B98428CBF00230123002B40F0FD
:102B3000A8805749A1FB00318B0C25686A6822F0F8
:102B40003F0242EA91426A6021680A6A22F03F022B
:102B500066684D4DAE424FD8013313430B62216876
:102B6000CA6922F44F4222F0FF026568464B9D423B
:102B70004CD8431E6D00B3FBF5F3013340F6FC70F7
:102B8000034278D0C3F30B031A43CA6121680B6870
:102B900023F0C003E269206A024313430B602168FB
:102BA0008B6823F4034323F0FF032269E0680243A8
:102BB00013438B602168CB6823F0FF036269A0692F
:102BC00002431343CB602268136843F00103136090
:102BD00000202064202384F83D30206384F83E00E8
:102BE00070BD80F83C30FEF77BFA82E7294B9842B3
:102BF0008CBF0023012399E74FF4967505FB03F37F
:102C0000254DA5FB03539B090133A6E7A668BEB972
:102C1000431E05EB450CB3FBFCF30133C3F30B037D
:102C2000B3FA83F35B0943BBC6B9431E05EB450505
:102C3000B3FBF5F30133C3F30B0343F40043A3E702
:102C4000431E05EB850C0CEB8C0CB3FBFCF3013342
:102C5000C3F30B03B3FA83F35B09E4E7431E05EB0D
:102C6000850505EB8505B3FBF5F30133C3F30B03D2
:102C700043F4404388E7042386E7012384E70120E7
:102C800070470120ACE700BFA08601007F841E00D2
:102C900083DE1B43FF083D00D34D621000B583B0B7
:102CA000002200920D4B596C41F480415964596CDB
:102CB00001F48041009100990192196C41F080511A
:102CC00019641B6C03F080530193019B0F216FF07B
:102CD0000100FFF791FB03B05DF804FB00380240F0
:102CE000002800F09B8070B50D4604464F4B1B68D2
:102CF00003F00F038B4208D2CBB24C4A1370136817
:102D000003F00F038B4240F08B80236813F0020F17
:102D100017D013F0040F04D0454A936843F4E053EE
:102D20009360236813F0080F04D0414A936843F47A
:102D3000604393603E4A936823F0F003A1680B431D
:102D40009360236813F0010F32D06368012B21D008
:102D50009A1E012A25D9364A126812F0020F61D054
:102D600033498A6822F0030213438B60FEF764FD47
:102D700006462F4B9B6803F00C036268B3EB820F8F
:102D800016D0FEF759FD801B41F288339842F0D9E6
:102D9000032042E0264A126812F4003FE0D10120ED
:102DA0003BE0234A126812F0007FD9D1012034E0C1
:102DB0001E4B1B6803F00F03AB4207D9EAB21B4B53
:102DC0001A701B6803F00F03AB422DD1236813F078
:102DD000040F06D0164A936823F4E053E1680B43CE
:102DE0009360236813F0080F07D0114A936823F407
:102DF0006043216943EAC103936000F065F80C4B1E
:102E00009B68C3F303130B4AD35CD8400A4B18608A
:102E10000A4B186801F02AFB002070BD01207047A2
:102E20000120FAE70120F8E70120F6E7003C024024
:102E300000380240286200080C0000200800002032
:102E4000014B1868704700BF0C00002008B5FFF761
:102E5000F7FF044B9B68C3F38223034AD35CD8403B
:102E600008BD00BF003802402062000808B5FFF727
:102E7000E7FF044B9B68C3F34233034AD35CD8405B
:102E800008BD00BF00380240206200080F23036025
:102E90000B4B9A6802F0030242609A6802F0F0025B
:102EA00082609A6802F4E052C2609B68DB0803F417
:102EB000E0530361034B1B6803F00F030B60704783
:102EC00000380240003C024008B55E4B9B6803F0AE
:102ED0000C03082B03D00C2B5BD05B4833E0594B21
:102EE0005A6802F03F025B6813F4800F2CD0554BF8
:102EF0005868C0F388104FEA401CBCEB000C6EEB26
:102F00000E0E4FEA8E1343EA9C634FEA8C11B1EB2D
:102F10000C0163EB0E03DB0043EA5173C90011EBB4
:102F2000000C43F10003990200234FEA8C2041EA90
:102F30009C51FDF74DF9434B5B68C3F301430133EB
:102F40005B00B0FBF3F008BD3E4B5868C0F388103F
:102F50004FEA401CBCEB000C6EEB0E0E4FEA8E13DA
:102F600043EA9C634FEA8C11B1EB0C0163EB0E0357
:102F7000DB0043EA5173C90011EB000C43F100037D
:102F8000990200234FEA8C2041EA9C51FDF720F979
:102F9000D1E72C4B5A6802F03F025B6813F4800FB4
:102FA0002AD0284B5868C0F388104FEA401CBCEB6D
:102FB000000C6EEB0E0E4FEA8E1343EA9C634FEA51
:102FC0008C11B1EB0C0163EB0E03DB0043EA517390
:102FD000C90011EB000C43F10003990200234FEAF2
:102FE0008C2041EA9C51FDF7F3F8164B5B68C3F364
:102FF0000273B0FBF3F0A6E7124B5868C0F38810D9
:103000004FEA401CBCEB000C6EEB0E0E4FEA8E1329
:1030100043EA9C634FEA8C11B1EB0C0163EB0E03A6
:10302000DB0043EA5173C90011EB000C43F10003CC
:10303000990200234FEA8C2041EA9C51FDF7C8F821
:10304000D3E700BF003802400024F400002800F05D
:10305000018270B582B00446036813F0010F41D0BD
:10306000994B9B6803F00C03042B32D0964B9B6862
:1030700003F00C03082B27D0934B9B6803F00C0341
:103080000C2B59D06368B3F5803F5BD0B3F5A02F0C
:103090005ED08D4B1A6822F480321A601A6822F4CE
:1030A00080221A606368002B5CD0FEF7C5FB0546E2
:1030B000854B1B6813F4003F14D1FEF7BDFB401B8A
:1030C0006428F5D90320CCE17F4B5B6813F4800FB3
:1030D000D2D07D4B1B6813F4003F03D06368002BF4
:1030E00000F0BA81236813F0020F60D0764B9B6822
:1030F00013F00C0F4AD0744B9B6803F00C03082BA1
:103100003FD0714B9B6803F00C030C2B69D0E36834
:10311000002B75D06D4B01221A60FEF78DFB054622
:10312000694B1B6813F0020F61D1FEF785FB401B52
:103130000228F5D9032094E1634B5B6813F4800FF8
:10314000A0D0C6E7604A136843F480331360A9E750
:103150005D4B1A6842F480221A601A6842F4803289
:103160001A609FE7FEF768FB0546574B1B6813F490
:10317000003FB7D0FEF760FB401B6428F5D9032061
:103180006FE1514B5B6813F4800FBAD14E4B1B6853
:1031900013F0020F03D0E368012B40F05F814A4A2D
:1031A000136823F0F803216943EAC103136023681D
:1031B00013F0080F49D06369002B33D0434B012231
:1031C000C3F8802EFEF738FB05463F4B5B6F13F0CC
:1031D000020F3AD1FEF730FB401B0228F5D903203D
:1031E0003FE1394B5B6813F4800F90D1CEE7364A4C
:1031F000136823F0F803216943EAC1031360D6E79B
:10320000324B00221A60FEF717FB05462E4B1B6857
:1032100013F0020FCBD0FEF70FFB401B0228F5D9AD
:1032200003201EE1294B0022C3F8802EFEF704FB89
:103230000546254B5B6F13F0020F06D0FEF7FCFA34
:10324000401B0228F5D903200BE1236813F0040F7B
:1032500076D01D4B1B6C13F0805F33D1002301939C
:10326000194B1A6C42F080521A641B6C03F08053A5
:103270000193019B0125164B1B6813F4807F29D015
:10328000A368012B3AD0052B3ED00F4B1A6F22F0CA
:1032900001021A671A6F22F004021A67A368002B52
:1032A0003CD0FEF7C9FA0646074B1B6F13F0020F1E
:1032B00045D1FEF7C1FA801B41F288339842F3D919
:1032C0000320CEE00025D6E7003802400000474248
:1032D000007000406B4A136843F480731360FEF77C
:1032E000ABFA0646674B1B6813F4807FC8D1FEF724
:1032F000A3FA801B0228F5D90320B2E0624A136FBB
:1033000043F001031367C9E75F4B1A6F42F00402F1
:103310001A671A6F42F001021A67BFE7FEF78CFACC
:103320000646594B1B6F13F0020F08D0FEF784FAC4
:10333000801B41F288339842F3D9032091E0EDB924
:10334000A369002B00F08C804F4A926802F00C02B7
:10335000082A54D0022B17D04C4B00221A66FEF7D5
:103360006BFA0446484B1B6813F0007F45D0FEF70C
:1033700063FA001B0228F5D9032072E0424A136C5D
:1033800023F080531364DBE7404B00221A66FEF7FC
:1033900053FA05463C4B1B6813F0007F06D0FEF73E
:1033A0004BFA401B0228F5D903205AE0E369226A50
:1033B0001343626A43EA8213A26A5208013A43EA5B
:1033C0000243E26A43EA0263226B43EA02732E4A33
:1033D00053602E4B01221A66FEF72EFA04462A4B42
:1033E0001B6813F0007F06D1FEF726FA001B0228A7
:1033F000F5D9032035E0002033E0002031E0012B37
:1034000031D0214B5B6803F48001E26991422CD1F9
:1034100003F03F02216A8A4229D1616A47F6C072ED
:103420001A40B2EB811F24D103F44031A26A520842
:10343000013AB1EB024F1ED103F07062E16AB2EBC8
:10344000016F1AD103F0E043226BB3EB027F16D178
:10345000002006E001207047012002E0012000E08A
:10346000002002B070BD0120FBE70120F9E7012038
:10347000F7E70120F5E70120F3E70120F1E701205C
:10348000EFE700BF007000400038024000004742F4
:103490002DE9F04782B00546884617461E46FEF7DE
:1034A000CBF90A9B1B1A03EB0609FEF7C5F9824606
:1034B000284B1B68C3F3CB3309FB03F301932B6841
:1034C0009C6838EA04040CBF01230023BB423DD0B2
:1034D000B6F1FF3FF3D0FEF7AFF9A0EB0A00484585
:1034E00007D2019A02B14A46019B013B01939146E2
:1034F000E5E72A68536823F0E00353606B68B3F58F
:10350000827F0BD0AB6AB3F5005F14D0012385F83E
:103510005130002385F85030032018E0AB68B3F534
:10352000004F02D0B3F5806FECD12A68136823F006
:1035300040031360E6E72A68136823F4005313601E
:103540002A68136843F400531360DFE7002002B0D9
:10355000BDE8F0870C00002070B584B004460D462D
:10356000164600920B4601220221FFF791FFD0B9C7
:10357000174B1B68174AA2FB03235B0D4FF47A72AB
:1035800002FB03F303936368B3F5827F11D0039BBF
:103590003BB1039B013B039323689B6813F0800FAF
:1035A000F5D104B070BD636D43F020036365032063
:1035B000F7E700962B46002280212046FFF768FFA0
:1035C0000028EED0636D43F0200363650320E8E735
:1035D0000C000020819F5E1600285AD010B50446CA
:1035E000436A33B94368B3F5827F05D00023C361D2
:1035F00002E00023036143610023A36294F8513089
:10360000002B40D0022384F851302268136823F045
:1036100040031360636803F48273A26802F40442F7
:103620001343E26802F400621343226902F00202CB
:103630001343626902F001021343A26902F40072AB
:103640001343E26902F038021343226A02F0800257
:103650001343A26A02F40052216813430B60638B88
:1036600003F00403626A02F01002216813434B6006
:103670002268D36923F40063D361002060650123CD
:1036800084F8513010BD84F850302046FDF7F2FF29
:10369000B8E7012070472DE9F04383B0044688461F
:1036A00091461F460A9DFEF7C7F8064694F851302A
:1036B0006268012B0BD0D9B2B2F5827F40F0048151
:1036C000A368002B40F00481042940F00381B8F185
:1036D000000F00F00181B9F1000F00F0FF80002F12
:1036E00000F0FE8094F85030012B00F0FB800123A5
:1036F00084F8503094F85130042B02D0052384F81C
:10370000513000236365C4F83890E787A787C4F871
:103710003080E786A7862364636423681A6812F002
:10372000400F03D11A6842F040021A60E368B3F513
:10373000006F11D063680BB1012F0BD1226B23688E
:1037400012781A73236B01332363E38E9BB2013B20
:103750009BB2E386012771E063680BB1012F0BD1A7
:10376000226B23681288DA60236B02332363E38EB3
:103770009BB2013B9BB2E38601271BE023689A685A
:1037800012F0010F0ED0E28F92B25AB1DA68A36B39
:103790001A80A36B0233A363E38F9BB2013B9BB2FE
:1037A000E3870127FEF748F8801BA84202D3B5F152
:1037B000FF3F1ED1E38E9BB21BB9E38F9BB2002B60
:1037C00062D023689A6812F0020FD7D0E28E92B2CC
:1037D000002AD3D0002FD1D0226B1288DA60236B5D
:1037E00002332363E38E9BB2013B9BB2E386002747
:1037F000C4E7012384F85130002384F850300320BB
:1038000063E023689A6812F0010F0ED0E28F92B243
:103810005AB1DA68A36B1A70A36B0133A363E38F09
:103820009BB2013B9BB2E3870127FEF705F8831BA0
:10383000AB4202D3B5F1FF3F1ED1EDB1E38E9BB297
:1038400013B9E38F9BB2FBB123689A6812F0020FA1
:10385000D7D0E28E92B2002AD3D0002FD1D0226BE3
:1038600012781A73236B01332363E38E9BB2013BFF
:103870009BB2E3860027C4E7012384F8513000237C
:1038800084F85030032020E0324629462046FFF7D6
:1038900063FE90B9A36833B901932368DA68019293
:1038A0009B680193019B012384F85130002384F825
:1038B0005030636D4BB1012007E020236365002386
:1038C00084F85030012000E0022003B0BDE8F0830E
:1038D0000220FAE70220F8E70120F6E70120F4E7EA
:1038E0000120F2E70220F0E730B4036A026A22F016
:1038F000010202624268846924F0730C0C6844EA95
:103900000C0423F0020C8B6843EA0C03114DA8420F
:1039100003D005F58065A84205D123F00803CD68E2
:103920002B4323F004030B4DA84203D005F580651B
:10393000A84207D122F440724D6945EA020C8A6917
:1039400042EA0C02426084614A684263036230BC0E
:10395000704700BF0000014030B4036A026A22F4DD
:10396000807202624268C46924F0730C0C6844EAF5
:103970000C0523F400738C6843EA0423114CA04225
:1039800003D004F58064A04206D123F40063CC6820
:1039900043EA042323F480630A4CA04203D004F5D5
:1039A0008064A04207D122F440524C6942EA0412DA
:1039B0008C6942EA04124260C5614A68C2630362CC
:1039C00030BC70470000014030B4036A026A22F440
:1039D000805202624468C26922F4E6420D6842EAFB
:1039E000052223F400538D6843EA0533094DA842AC
:1039F00003D005F58065A84204D124F480444D69C4
:103A000044EA85144460C2614A680264036230BCBF
:103A1000704700BF0000014010B4036A046A24F03C
:103A200001040462846924F0F00C4CEA021223F0D1
:103A30000A030B43826103625DF8044B704710B4C4
:103A4000036A046A24F010040462846924F4704C4C
:103A50004CEA023223F0A00343EA011382610362BD
:103A60005DF8044B7047836823F070030B4343F009
:103A7000070383607047000090F83D30012B37D179
:103A8000022380F83D300268D36843F00103D3601D
:103A90000368194A934220D0B3F1804F1DD0A2F59C
:103AA0007C42934219D002F58062934215D002F510
:103AB0008062934211D002F5784293420DD002F514
:103AC0007052934209D0A2F59432934205D01A68FD
:103AD00042F001021A60002070479A6802F0070263
:103AE000062A07D01A6842F001021A6000207047C7
:103AF0000120704700207047000001407047704768
:103B00007047704770B504460368DE681D6915F09C
:103B1000020F10D016F0020F0DD06FF002021A61E2
:103B20000123037703689B6913F0030F5ED0FDF751
:103B30008DF90023237715F0040F12D016F0040F2F
:103B40000FD023686FF004021A61022323772368E1
:103B50009B6913F4407F4FD02046FDF777F900238F
:103B6000237715F0080F12D016F0080F0FD0236836
:103B70006FF008021A61042323772368DB6913F0CE
:103B8000030F40D02046FDF761F90023237715F09D
:103B9000100F12D016F0100F0FD023686FF0100224
:103BA0001A61082323772368DB6913F4407F31D03F
:103BB0002046FDF74BF90023237715F0010F02D0C3
:103BC00016F0010F2DD115F0800F02D016F0800FE6
:103BD0002FD115F0400F02D016F0400F31D115F063
:103BE000200F02D016F0200F33D170BDFFF787FFF2
:103BF0002046FFF785FF9CE72046FFF780FF204621
:103C0000FFF77EFFABE72046FFF779FF2046FFF77F
:103C100077FFBAE72046FFF772FF2046FFF770FFF5
:103C2000C9E723686FF001021A612046FDF7D6FA52
:103C3000C9E723686FF080021A61204600F014FC87
:103C4000C7E723686FF040021A612046FFF759FF6B
:103C5000C5E723686FF020021A61204600F003FCDC
:103C6000C3E700000368344A904212D0B0F1804F9D
:103C70000FD0A2F57C4290420BD002F580629042B8
:103C800007D002F58062904203D002F5784290425C
:103C900003D123F070034A681343274A90422AD085
:103CA000B0F1804F27D0A2F57C42904223D002F59C
:103CB000806290421FD002F5806290421BD002F5D4
:103CC0007842904217D002F57052904213D002F51C
:103CD000806290420FD002F5806290420BD0A2F534
:103CE0009832904207D002F58062904203D002F5EC
:103CF0008062904203D123F44073CA68134323F0D7
:103D000080034A69134303608B68C3620B68836254
:103D1000094B984203D003F58063984201D10B69A7
:103D2000036301234361036913F0010F03D00369A7
:103D300023F00103036170470000014040B310B558
:103D4000044690F83D30F3B1022384F83D3021461B
:103D500051F8040BFFF786FF012384F8463084F8FE
:103D60003E3084F83F3084F8403084F8413084F8A5
:103D7000423084F8433084F8443084F8453084F885
:103D80003D30002010BD80F83C3001F0CBFCDBE77B
:103D90000120704740B310B5044690F83D30F3B1B0
:103DA000022384F83D30214651F8040BFFF75AFFF7
:103DB000012384F8463084F83E3084F83F3084F89C
:103DC000403084F8413084F8423084F8433084F83D
:103DD000443084F8453084F83D30002010BD80F830
:103DE0003C30FFF78BFEDBE70120704730B4036AFD
:103DF000026A22F0100202624468826922F4E642FA
:103E00000D6842EA052223F020038D6843EA05137A
:103E1000114DA84203D005F58065A84206D123F0D4
:103E20008003CD6843EA051323F040030A4DA842FE
:103E300003D005F58065A84207D124F440644D699C
:103E400044EA85048D6944EA8504446082614A68D5
:103E50008263036230BC70470000014038B590F8BF
:103E60003C30012B66D004460D46012380F83C30DF
:103E70000C2A5AD8DFE802F0075959591B595959E9
:103E80003059595944000068FFF72EFD22689369A4
:103E900043F0080393612268936923F0040393615C
:103EA0002268936929690B43936100203EE0006812
:103EB000FFF79CFF2268936943F4006393612268D3
:103EC000936923F48063936122689369296943EAC3
:103ED00001239361002029E00068FFF73DFD22687F
:103EE000D36943F00803D3612268D36923F0040344
:103EF000D3612268D36929690B43D361002015E09F
:103F00000068FFF761FD2268D36943F40063D36161
:103F10002268D36923F48063D3612268D369296955
:103F200043EA0123D361002000E00120002384F84C
:103F30003C3038BD0220FCE770B49446066A046A3F
:103F400024F0010404628469184DA8421CD0B0F129
:103F5000804F19D0164A904216D002F580629042E6
:103F600012D002F5806290420ED002F57842904263
:103F70000AD002F57052904206D0A2F594329042D7
:103F800002D044F0010203E024F0030242EA0C02F2
:103F900022F0F0021B01DBB2134326F00A0201F00B
:103FA0000A0111438361016270BC70470000014047
:103FB0000004004010B4846824F47F4C42EA0322D9
:103FC0000A4342EA0C0282605DF8044B704790F8A5
:103FD0003C30012B78D010B50446012380F83C30EA
:103FE000022380F83D300268936823F47F4323F076
:103FF000770393600B68602B4CD023D8402B54D0B0
:1040000011D8202B03D00AD80BB1102B05D119469B
:104010002068FFF728FD002028E0012026E0302B53
:10402000F5D0012022E0502B0AD1CA684968006807
:10403000FFF7F2FC50212068FFF715FD002015E086
:10404000012013E0B3F5805F3AD0B3F5005F14D0E0
:10405000702B37D1CB684A6889680068FFF7AAFFE0
:104060002268936843F0770393600020012384F86B
:104070003D30002384F83C3010BDCB684A68896825
:104080000068FFF797FF2268936843F480439360CA
:104090000020EBE7CA6849680068FFF7D0FC6021A0
:1040A0002068FFF7E0FC0020E0E7CA684968006884
:1040B000FFF7B2FC40212068FFF7D5FC0020D5E7D0
:1040C0000020D3E70120D1E70220704701F01F0153
:1040D0004FF0010C0CFA01FC036A23EA0C030362A3
:1040E000036A8A40134303627047000010B5044618
:1040F0000846002941D194F83E30013B18BF012306
:10410000002B6BD100284ED1022384F83E300122CF
:1041100001462068FFF7DAFF2368324A934203D052
:1041200002F58062934203D15A6C42F400425A6411
:1041300023682C4A934246D0B3F1804F43D0A2F576
:104140007C4293423FD002F5806293423BD002F51D
:104150008062934237D002F57842934233D002F521
:10416000705293422FD0A2F5943293422BD01A680A
:1041700042F001021A6000202FE0042907D008292C
:104180000BD094F84130013B18BF0123B8E794F8F5
:104190003F30013B18BF0123B2E794F84030013BA8
:1041A00018BF0123ACE7042805D0082807D0022354
:1041B00084F84130ABE7022384F83F30A7E70223BD
:1041C00084F84030A3E79A6802F00702062A07D075
:1041D0001A6842F001021A60002010BD0120FCE7BD
:1041E0000020FAE700000140002865D070B588B0D3
:1041F0000E46044690F83D30002B58D0022384F838
:104200003D30214651F8040BFFF72CFDB368032223
:1042100031682068FFF790FE2268936923F00C0351
:1042200093612268936971680B43936122685368B4
:1042300043F0800353602268936823F07003936017
:104240002268936843F0400393602268936823F0E8
:10425000070393602268936843F00403936000258A
:104260000595069570230193079504950395F368CA
:10427000029301A92068FFF7B9FD2268536823F073
:10428000700353602268536843F050035360012366
:1042900084F8463084F83E3084F83F3084F8423069
:1042A00084F8433084F83D30284608B070BD80F86B
:1042B0003C3001F085FAA1E70120704710B50446B3
:1042C00090F83EC090F83F3090F8422090F84310AC
:1042D000BCF1010F4FD15FFA8CF0DBB2D2B2C9B2A0
:1042E000012B49D1012A48D1012901D0104643E0D0
:1042F000022384F83E3084F83F3084F8423084F85A
:1043000043302268D36843F00203D36001220021C6
:104310002068FFF7DBFE23681A4A934220D0B3F1EE
:10432000804F1DD0A2F57C42934219D002F58062E5
:10433000934215D002F58062934211D002F5784283
:1043400093420DD002F57052934209D0A2F59432F7
:10435000934205D01A6842F001021A6000200BE077
:104360009A6802F00702062A09D01A6842F0010290
:104370001A60002000E0012010BD1846FCE7002074
:10438000FAE700BF0000014090F83C20012A3DD030
:1043900010B40346012280F83C20022280F83D2020
:1043A00002685068946820F0700C086840EA0C00BD
:1043B00050601A68164882421AD0B2F1804F17D066
:1043C000A0F57C40824213D000F5806082420FD07D
:1043D00000F5806082420BD000F57840824207D021
:1043E00000F57050824203D0A0F59430824204D18F
:1043F00024F08004496821439160012283F83D2024
:10440000002083F83C005DF8044B704702207047A1
:1044100000000140024690F83C30012B21D00123DE
:1044200080F83C30CB6823F440738868034323F45E
:1044300080634868034323F400630868034323F45C
:1044400080530869034323F400534869034323F46A
:104450008043C9690B4311684B64002082F83C001B
:1044600070470220704770477047000030B589B030
:10447000044600230193214B1A6C42F010021A6487
:104480001B6C03F010030193019B02A903A8FEF724
:10449000FDFC069BCBB9FEF7D9FC0346184AA2FBEC
:1044A00003239B0C013B1748174A026040F2E73296
:1044B000C26043600023036183608361FFF73EFCB9
:1044C000054630B1284609B030BDFEF7BFFC4300B9
:1044D000E4E70C48FFF7D0FA05460028F2D1362071
:1044E000FDF79AFF0F2C01D90125EBE700222146A9
:1044F0003620FDF781FF054B1C60E3E700380240E2
:1045000083DE1B43EC420020001000400800002026
:10451000026802F10C0353E8003F23F0C0030C32A1
:1045200042E800310029F3D1202380F84130704760
:10453000026802F10C0353E8003F23F490730C323D
:1045400042E800310029F3D1026802F1140353E874
:10455000003F23F00103143242E800310029F3D177
:10456000036B012B05D0202380F842300023036326
:104570007047026802F10C0353E8003F23F0100378
:104580000C3242E800310029F3D1ECE790F84130D9
:10459000212B01D0022070478368B3F5805F17D0CC
:1045A000036A5A1C02621A7803685A60C38C9BB271
:1045B000013B9BB2C3844BB90268D36823F08003EC
:1045C000D3600268D36843F04003D3600020704793
:1045D0000369002BE4D1036A1B880268C3F3080354
:1045E0005360036A02330362E0E7000010B504463B
:1045F0000268136923F44053C1680B431361836855
:1046000002691A4343691A43C3691A430168CB68B4
:1046100023F4164323F00C031343CB600268536961
:1046200023F4407381690B4353610368314A934219
:1046300006D002F58062934202D0FEF707FC01E04B
:10464000FEF714FCE369B3F5004F29D000210318ED
:1046500049411B1841F10001C90041EA5371DB00D7
:10466000181863684FEA83024FEA937341F100011F
:10467000FBF7AEFD204AA2FB00314909642303FB8E
:1046800011031B013233A2FB03235B0903F0F00289
:1046900002EB011203F00F03216813448B6010BD7D
:1046A0000023021843EB0301121841F10001C90075
:1046B00041EA5271D200101841F10001626892186B
:1046C0005B41FBF785FD0C4AA2FB003149096423DD
:1046D00003FB1103DB003233A2FB03235B095A0007
:1046E00002F4F87202EB011203F00703216813448D
:1046F0008B60D4E7001001401F85EB5160B310B50B
:10470000044690F8413013B3242384F841302268E2
:10471000D36823F40053D3602046FFF767FF226875
:10472000136923F4904313612268536923F02A0329
:1047300053612268D36843F40053D360002060645F
:10474000202384F8413084F84230606310BD80F843
:10475000403001F06BF9D7E70120704738B590F889
:104760004130202B30D1044600292FD00AB9012036
:1047700038BD01628284C28400234364212084F80E
:104780004100A06B124DC563A06B124D0564A06B78
:10479000114DC564A06B036520681346021DA06B14
:1047A000FDF720FF23686FF040021A60226802F1D3
:1047B000140353E8003F43F08003143242E8003111
:1047C0000029F3D10020D3E70220D1E70120CFE771
:1047D000DF4700084748000855480008704708B5FB
:1047E0000346806B1B681B6813F4807F1AD100237B
:1047F000C384026802F1140353E8003F23F08003EE
:10480000143242E800310029F3D1026802F10C03AE
:1048100053E8003F43F040030C3242E800310029E6
:10482000F3D108BDFFF7DAFFFBE708B50168CA68F6
:1048300022F04002CA60202280F84120FFF7CEFF1C
:10484000002008BD704708B5806BFFF7FBFF08BD6F
:104850007047704710B5846B23685B6994F84120FA
:10486000212A0FD023685B6903F0400394F84220AB
:10487000222A11D0636C43F0100363642046FCF7D6
:10488000CFF810BD03F08003002BEBD00023E384AE
:104890002046FFF73DFEE5E7002BEBD00023E38544
:1048A0002046FFF745FEE5E708B5806B0023C3858A
:1048B000C384FCF7B5F808BD90F84230222B69D1CB
:1048C0008368B3F5805F4FD0826AB3F5805F04D010
:1048D000002B56D10369002B53D103685B6813701A
:1048E000836A01338362C38D9BB2013B9BB2C38554
:1048F000002B51D100B583B00268D36823F02003A8
:10490000D3600268D36823F48073D360026853696C
:1049100023F001035361202380F8423000234363D6
:10492000036B012B33D100230363026802F10C03F4
:1049300053E8003F23F010030C3242E80031002915
:10494000F3D103681A6812F0100F06D0002201920A
:104950001A6801925B680193019B818DFCF75EF8F8
:10496000002003B05DF804FB0269002AACD1826A22
:1049700003685B68C3F308031380836A02338362AE
:10498000B1E703685B6803F07F031370A8E7FFF7E4
:104990005FFFE5E7022070470020704710B582B046
:1049A000044602681368D068516913F00F0F09D1EB
:1049B00013F0200F0CD010F0200F09D02046FFF785
:1049C0007BFF16E011F0010115D110F4907F12D198
:1049D000216B012979D013F0800F03D010F0800FE4
:1049E00040F0148113F0400F03D010F0400F40F05E
:1049F000118102B010BD13F0010F06D010F4807FBA
:104A000003D0626C42F00102626413F0040F04D020
:104A100019B1626C42F00202626413F0020F04D01A
:104A200019B1626C42F00402626413F0080F07D0FF
:104A300010F0200F00D119B1626C42F008026264DC
:104A4000626C002AD5D013F0200F02D010F0200F96
:104A500029D123685B6903F04003626C12F0080FF0
:104A600000D163B32046FFF763FD23685B6913F051
:104A7000400F20D0226802F1140353E8003F23F0D6
:104A80004003143242E800310029F3D1E36B73B1E3
:104A9000624A1A65E06BFDF722FE0028A9D0E06BA0
:104AA000036D9847A5E72046FFF706FFD1E72046AC
:104AB000FBF7B6FF9DE72046FBF7B2FF99E72046DC
:104AC000FBF7AEFF0023636493E713F0100F82D06F
:104AD00010F0100F3FF47FAF002301931368019390
:104AE00053680193019B536913F0400F52D0E26B5E
:104AF00013685B689BB2002B3FF47BAFA18D99429A
:104B00007FF677AFE385D369B3F5807F37D022682E
:104B100002F10C0353E8003F23F480730C3242E8A7
:104B200000310029F3D1226802F1140353E8003F59
:104B300023F00103143242E800310029F3D1226846
:104B400002F1140353E8003F23F04003143242E81B
:104B500000310029F3D1202384F84230002323635D
:104B6000226802F10C0353E8003F23F010030C32DB
:104B700042E800310029F3D1E06BFDF767FD022325
:104B80006363A18DE38D9BB2C91A89B22046FBF7FE
:104B900045FF2EE7A18DE38D9BB2C91A89B2E38D43
:104BA0009BB2002B3FF425AF00293FF422AF2268CF
:104BB00002F10C0353E8003F23F490730C3242E8F7
:104BC00000300028F3D1226802F1140353E8003FBB
:104BD00023F00103143242E800300028F3D12023EF
:104BE00084F8423000232363226802F10C0353E867
:104BF000003F23F010030C3242E800300028F3D1CC
:104C0000022363632046FBF709FFF2E62046FFF725
:104C1000BDFCEEE62046FFF708FEEAE6A9480008DC
:104C200008B5806B01234363036B012B02D0FFF7B0
:104C300010FE08BD818D4908FBF7F0FEF9E708B5C5
:104C40000346806B1B681B6813F4807F2BD1002305
:104C5000C385026802F10C0353E8003F23F480731C
:104C60000C3242E800310029F3D1026802F114034A
:104C700053E8003F23F00103143242E800310029D9
:104C8000F3D1026802F1140353E8003F23F040031C
:104C9000143242E800310029F3D1202380F8423059
:104CA000036B012B07D000234363036B012B0FD051
:104CB000FFF7CEFD08BD026802F10C0353E8003F88
:104CC00023F010030C3242E800310029F3D1EAE767
:104CD000818DFBF7A3FEEDE730B583B004461346A4
:104CE0008162828500254564222280F84220C26BC1
:104CF0001F48D063E26B1F481064E26B1E48D0640B
:104D0000E26B156520680A46011DE06BFDF76AFC41
:104D1000019523681A6801925B680193019B2369DE
:104D20005BB1226802F10C0353E8003F43F4807347
:104D30000C3242E800310029F3D1226802F1140359
:104D400053E8003F43F00103143242E800310029E8
:104D5000F3D1226802F1140353E8003F43F040030B
:104D6000143242E800310029F3D1002003B030BDF5
:104D70003F4C0008214C00085548000808B590F841
:104D80004230202B08D149B10AB9012008BD0023C7
:104D90000363FFF7A1FFF9E70220F7E70120F5E73A
:104DA00090F84230202B29D110B582B0044639B397
:104DB00012B9012002B010BD012303630023436335
:104DC000FFF78AFF0028F5D1236B012B01D00120CA
:104DD000F0E70023019323681A6801925B6801934E
:104DE000019B226802F10C0353E8003F43F01003DB
:104DF0000C3242E800310029F3D1DBE70220704792
:104E00000120D7E7FEE7FEE7FEE7FEE7FEE7704793
:104E100008B50248FDF776FC08BD00BFF04400204D
:104E200008B50248FDF76EFC08BD00BF50450020E4
:104E300008B50548FCF7E4FE0448FCF7E1FE044829
:104E4000FCF7DEFE08BD00BF0C010020C4000020FE
:104E50007C00002008B50248FEF754FE08BD00BFE4
:104E6000A844002008B50248FEF74CFE08BD00BF6C
:104E7000A844002008B50248FEF744FE08BD00BF64
:104E8000A844002008B50248FEF73CFE08BD00BF5C
:104E90006044002008B50248FFF780FD08BD00BF50
:104EA000B045002008B50248FEF72CFE08BD00BF43
:104EB000EC420020034AD2F8883043F47003C2F871
:104EC0008830704700ED00E0084B1B681B6823B971
:104ED000074B4FF0FF321A607047044B1B68DB68CA
:104EE000DB685A68024B1A60704700BFA443002079
:104EF0003C4300202DE9F04707469846089DDDF821
:104F000024900A9C266B02F18042013A06EB82064D
:104F100026F00706C1B308464FF0000CBCF10F0F96
:104F200009D810F80C2004EB0C0383F8342012B1DC
:104F30000CF1010CF2E7002384F84330062D00D970
:104F40000625E56265644FF0000AC4F848A0201DFC
:104F5000FCF709F904F11800FCF705F92461C5F123
:104F60000705A5616462C4F84CA084F850A04246CD
:104F700039463046FCF7F8F92060B9F1000F01D04E
:104F8000C9F80040BDE8F087002384F83430D5E745
:104F900038B5002407E004EB840293000E4818445F
:104FA000FCF7D6F80134062CF5D90C4D2846FCF751
:104FB000CFF80B4C2046FCF7CBF80A48FCF7C8F8B2
:104FC0000948FCF7C5F80948FCF7C2F8084B1D6012
:104FD000084B1C6038BD00BFD0430020BC430020FC
:104FE000A84300208C430020784300206043002029
:104FF000A4430020A043002010B50446FCF7E2F9CA
:10500000214A136801331360204B1B685BB1204BAE
:105010001B686BB91D4B1B68DA6AE36A9A4207D8B2
:105020001A4B1C6004E0194B1C601368012B28D03C
:10503000184A136801331360E06A01238340164A5B
:1050400011680B43136000EB8000211D134B03EB31
:105050008000FCF78BF8FCF7D7F90D4B1B687BB190
:105060000A4B1B68DA6AE36A9A4209D24FF0E023DE
:105070004FF08052C3F8042DBFF34F8FBFF36F8FF3
:1050800010BDFFF785FFD3E75C4300205C440020A0
:10509000504300204043002054430020D0430020D0
:1050A00010B5044690F8513063B1012B11D0022B9A
:1050B0000ED04FF0500383F31188BFF36F8FBFF30F
:1050C0004F8FFEE7006BFBF7AFFF2046FBF7ACFF0F
:1050D00010BDFBF7A9FFFBE70F4B1B68D3B110B561
:1050E000FCF770F90D4BDB68DC68201DFCF762F8FB
:1050F0000B4A1368013B1360074A1368013B1360B6
:10510000FCF782F92046FFF7CBFF034B1B68002B0F
:10511000E6D110BD704700BF7443002078430020E3
:105120005C43002008B5FFF7D7FF074B1B68012B36
:10513000F9D94FF0E0234FF08052C3F8042DBFF3AC
:105140004F8FBFF36F8FEEE7D043002070B504465A
:105150000D461D4B1E681D4B18680430FCF72AF8DD
:1051600048B91A4B1B68DB6A01229A4018490B6840
:1051700023EA02030B60B4F1FF3F0DD03444134B1C
:105180001B685C60A64210D9124B18680F4B196857
:105190000431FBF7F6FF70BD002DEFD00B4B196803
:1051A00004310D48FBF7E2FFF5E70C4B1868074B9D
:1051B00019680431FBF7E5FF094B1B68A342EAD9E4
:1051C000074B1C60E7E700BF584300205C44002009
:1051D00054430020A043002060430020A44300204B
:1051E0003C43002030B587B00B9C7CB10C9DB5B121
:1051F00054250495049D542D1AD04FF0500383F389
:105200001188BFF36F8FBFF34F8FFEE74FF050034E
:1052100083F31188BFF36F8FBFF34F8FFEE74FF01B
:10522000500383F31188BFF36F8FBFF34F8FFEE7F7
:10523000049D0C9D2C63022485F8514000240394A6
:10524000029505AC01940A9C0094FFF753FE0C985C
:10525000FFF7D2FE059807B030BD2DE9F04385B0C9
:105260000746884614461E469000FBF75BFE08B3CF
:1052700081465420FBF756FE0546A8B1C0F8309091
:10528000002380F85130039302900D9B01930C9BF7
:1052900000933346224641463846FFF72BFE284608
:1052A000FFF7AAFE012007E04846FBF7BDFE4FF0DE
:1052B000FF3001E04FF0FF3005B0BDE8F0830000A3
:1052C00010B588B000240594069407AA06A905A87D
:1052D000FBF7DAFC059B0293069B0193009423469F
:1052E000079A0E490E48FFF77DFF0E4B186090B1EC
:1052F0004FF0500383F31188BFF36F8FBFF34F8FCD
:10530000094B4FF0FF321A60084B01221A60084B1C
:105310001C60FCF7F1F808B010BD00BF1062000877
:1053200025510008384300203C4300205043002012
:1053300058430020024A136801331360704700BFCE
:1053400034430020F8B53A4B1B68002B69D1394B28
:105350001D6801351D60C5B9374B1B681B6843B11B
:105360004FF0500383F31188BFF36F8FBFF34F8F5C
:10537000FEE7314A1168314B186810601960304AF5
:10538000136801331360FFF79FFD2E4B1B68AB4280
:105390003DD900272C4B1B68DB6A03EB83039A0083
:1053A0002A4B9B58012B00D90127294B1B68002B46
:1053B0003CD001273AE001271F4B1B681B6843B311
:1053C0001D4B1B68DB68DC6863689D4226D3261D85
:1053D0003046FBF7EFFEA36A1BB104F11800FBF7A0
:1053E000E9FEE36A01229A401A49086802430A600A
:1053F00003EB83039A00314614481044FBF7B6FED2
:10540000E26A114B1B68DB6A9A42D4D2D4E70027C8
:10541000D2E70C4B4FF0FF321A60BBE7094A13602A
:10542000B8E70D4A13680133136000273846F8BD0A
:105430003443002058430020A4430020A043002010
:10544000444300203C4300205C440020D043002023
:1054500048430020544300204C43002038B5354BCE
:105460001B6843B94FF0500383F31188BFF36F8F6C
:10547000BFF34F8FFEE7FBF7A5FF2E4B1A68013AEB
:105480001A601B68002B4FD12B4B1B680BB90024F3
:105490004BE00024294B1B681BB3284BDB68DC68FE
:1054A00004F11800FBF786FE251D2846FBF782FE57
:1054B000E06A01238340224A11680B43136000EB2A
:1054C000800029461F4B03EB8000FBF74FFEE26A8A
:1054D0001D4B1B68DB6A9A42DCD31C4B01221A600D
:1054E000D8E70CB1FFF7F0FC194B1C6884B9174BD7
:1054F0001C68D4B14FF0E0234FF08052C3F8042D64
:10550000BFF34F8FBFF36F8F01240EE0013C07D034
:10551000FFF718FF0028F9D00C4B01221A60F5E7BD
:105520000B4B00221A60E2E70024FBF76DFF2046D8
:1055300038BD00BF344300205C4300208C43002072
:1055400054430020D04300205C4400204843002006
:105550004C43002010B5A8B10446104B1B6843B162
:105560004FF0500383F31188BFF36F8FBFF34F8F5A
:10557000FEE7FFF7DFFE00212046FFF7E7FDFFF71C
:105580006DFF48B94FF0E0234FF08052C3F8042D6F
:10559000BFF34F8FBFF36F8F10BD00BF34430020A8
:1055A000204B1B681BB1204B01221A6070471E4B19
:1055B00000221A601D4B1B68B3FA83F3DBB2C3F100
:1055C0001F0303EB83018A0019498A5842B94FF03F
:1055D000500383F31188BFF36F8FBFF34F8FFEE744
:1055E000134803EB83018A00024451684968516003
:1055F00003EB830C4FEA8C0208320244914209D03B
:1056000003EB83039A000A4B13445B68DA68094B87
:105610001A607047486862469100054A0A44506023
:10562000EEE700BF344300204843002054430020ED
:10563000D04300205C44002010B51A4C2046FCF7F3
:10564000DBF90A212046FCF779FA2046FCF7D2FA6A
:1056500007EE900AF8EE677A9FED137A67EE877A85
:105660009FED127A67EE877ADFED116A27EEA66A60
:1056700037EE677A86EE070A80EE260A00F0E4FA33
:105680009FED0C7AC0EE077A9FED0B7A77EE877A62
:10569000B7EE007A87EE270ADFED087A30EE670A68
:1056A00010BD00BF7C000020000080393333534020
:1056B00000401C4600F057450FCF5B3B33938843B7
:1056C00000B587B002A9002302934B608B60CB60CA
:1056D000009301931148124A02600F2242608360D6
:1056E0004FF6FF72C260036183610A2304930523AE
:1056F0000593FEF779FD58B95023009300230193D9
:1057000069460648FEF740FE28B907B05DF804FB7D
:10571000FBF770FDF0E7FBF76DFDF6E76044002056
:105720000004004010B588B0002303930493059350
:10573000069307930268204B9A4201D008B010BD2F
:105740000024019403F59C335A6C42F001025A6420
:105750005A6C02F001020192019A02941A6B42F013
:1057600002021A631B6B03F002030293029B4FF4C5
:1057700080530393022304930123079303A90F4843
:10578000FDF7AEF8224605211820FCF735FE18205B
:10579000FCF742FE224605211920FCF72DFE1920B8
:1057A000FCF73AFE224605211B20FCF725FE1B20B4
:1057B000FCF732FEC2E700BF0000014000040240D7
:1057C00070B588B000230393049305930693079361
:1057D0000268214B9A4201D008B070BD00240094A9
:1057E00003F50D331A6C42F002021A641A6C02F0CF
:1057F00002020092009A01941A6B42F001021A63AD
:105800001A6B02F001020192019A02941A6B42F0A3
:1058100002021A631B6B03F002030293029BC02374
:10582000039302250495079503AE31460B48FDF717
:1058300057F8012303930495059406940795314680
:105840000748FDF74DF8224605211D20FCF7D4FD41
:105850001D20FCF7E1FDBFE700040040000002400E
:105860000004024000B587B0002301930293039324
:105870000493059302680F4B9A4202D007B05DF87B
:1058800004FB002300930C4B1A6B42F001021A63D5
:105890001B6B03F001030093009B4FF4E063019343
:1058A000022302930123059301A90448FDF718F888
:1058B000E4E700BF00000140003802400000024061
:1058C00030B597B000241294139414941594109446
:1058D000119409940A940B940C940D940E940F94C3
:1058E00020252A46214601A800F06DF94048414B89
:1058F00003604460856041F63F73C3604FF480737A
:105900000361012343618461FEF718FA002854D132
:105910004FF48053129312A93548FEF758FB002824
:105920004ED13348FEF736FA00284CD100231093AD
:10593000119310A92E48FEF727FD002846D16023B9
:10594000099300220A920B920C920D920E920F92E2
:1059500009A92748FEF782FA00283AD1042209A9AA
:105960002348FEF77BFA002836D1082209A92048EF
:10597000FEF774FA002832D17023099341F63E7382
:105980000A930C2209A91A48FEF768FA50BB0023B3
:1059900001930293039304934FF4805205924FF4C2
:1059A00000520692089301A91148FEF733FDE0B9B1
:1059B0000F48FFF757FF17B030BDFBF71BFCA7E7F9
:1059C000FBF718FCADE7FBF715FCAFE7FBF712FCA4
:1059D000B5E7FBF70FFCC1E7FBF70CFCC5E7FBF7EE
:1059E00009FCC9E7FBF706FCD1E7FBF703FCDFE79F
:1059F000A84400200000014008B50A480A4B036093
:105A00004FF46123436000238360C36003610C2271
:105A100042618361C361FEF771FE00B908BDFBF707
:105A2000E9FBFBE7B0450020004800402DE9F047C6
:105A300088B00023039304930593069307930268A9
:105A4000414B9A4202D008B0BDE8F08704460025D9
:105A5000009503F5F8331A6C42F480221A641A6C2C
:105A600002F480220092009A01951A6B42F004021F
:105A70001A631A6B02F004020192019A02951A6BE2
:105A800042F002021A631B6B03F002030293029BB3
:105A9000202303934FF0020ACDF810A04FF0030922
:105AA000CDF818904FF00708CDF81C8003AF3946A9
:105AB0002648FCF715FF4FF480660396CDF810A03A
:105AC0000595CDF81890CDF81C8039462048FCF794
:105AD00007FF2048204B03604FF0006343604023E2
