:020000040800F2
:1000000000000220295B00085155000853550008E4
:1000100055550008575500085955000800000000C4
:100020000000000000000000000000005B55000818
:100030005D550008000000005F550008615500088C
:10004000795B0008795B0008795B0008795B000840
:10005000795B0008795B0008795B0008795B000830
:10006000795B0008795B0008795B0008795B000820
:1000700065550008795B000875550008795B000834
:10008000795B0008795B000885550008795B0008FA
:10009000795B0008795B0008795B0008795B0008F0
:1000A000A9550008B9550008795B0008C955000832
:1000B000795B0008D9550008795B0008795B000876
:1000C000795B0008795B0008795B0008795B0008C0
:1000D000795B0008795B0008795B0008E955000846
:1000E000795B0008795B0008795B0008795B0008A0
:1000F000795B0008795B0008795B0008795B000890
:10010000795B0008795B0008795B0008795B00087F
:10011000795B0008795B0008F9550008795B0008F5
:10012000795B0008795B0008795B0008795B00085F
:10013000795B00080000000000000000795B000807
:10014000795B0008795B0008795B0008795B00083F
:10015000795B0008795B0008795B0008795B00082F
:10016000795B0008795B0008795B0008795B00081F
:10017000795B0008795B0008795B000800000000EB
:1001800000000000795B0008000000000000000093
:10019000795B00080000000000000000795B0008A7
:1001A000000000000000000000000000795B000873
:1001B000795B0008795B0008795B0008795B0008CF
:0401C000795B00085F
:1001C80081F0004102E000BF83F0004330B54FEA00
:1001D80041044FEA430594EA050F08BF90EA020F6D
:1001E8001FBF54EA000C55EA020C7FEA645C7FEA00
:1001F800655C00F0E2804FEA5454D4EB5555B8BF23
:100208006D420CDD2C4480EA020281EA030382EA93
:10021800000083EA010180EA020281EA0303362D25
:1002280088BF30BD11F0004F4FEA01314FF4801CF8
:100238004CEA113102D0404261EB410113F0004F0A
:100248004FEA03334CEA133302D0524263EB4303C1
:1002580094EA050F00F0A780A4F10104D5F1200E5F
:100268000DDB02FA0EFC22FA05F2801841F10001BA
:1002780003FA0EF2801843FA05F359410EE0A5F18E
:1002880020050EF1200E012A03FA0EFC28BF4CF0BF
:10029800020C43FA05F3C01851EBE37101F0004575
:1002A80007D54FF0000EDCF1000C7EEB00006EEB82
:1002B8000101B1F5801F1BD3B1F5001F0CD349080C
:1002C8005FEA30004FEA3C0C04F101044FEA445263
:1002D80012F5800F80F09A80BCF1004F08BF5FEAEA
:1002E800500C50F1000041EB045141EA050130BDCA
:1002F8005FEA4C0C404141EB0101013C28BFB1F5DC
:10030800801FE9D291F0000F04BF01460020B1FA26
:1003180081F308BF2033A3F10B03B3F120020CDAF9
:100328000C3208DD02F1140CC2F10C0201FA0CF0D7
:1003380021FA02F10CE002F11402D8BFC2F1200C3C
:1003480001FA02F120FA0CFCDCBF41EA0C019040F2
:10035800E41AA2BF01EB0451294330BD6FEA04043B
:100368001F3C1CDA0C340EDC04F11404C4F1200226
:1003780020FA04F001FA02F340EA030021FA04F338
:1003880045EA030130BDC4F10C04C4F1200220FA8F
:1003980002F001FA04F340EA0300294630BD21FACD
:1003A80004F0294630BD94F0000F83F4801306BF93
:1003B80081F480110134013D4EE77FEA645C18BF87
:1003C8007FEA655C29D094EA050F08BF90EA020F1E
:1003D80005D054EA000C04BF1946104630BD91EA16
:1003E800030F1EBF0021002030BD5FEA545C05D119
:1003F8004000494128BF41F0004130BD14F5800458
:100408003CBF01F5801130BD01F0004545F0FE41CB
:1004180041F470014FF0000030BD7FEA645C1ABF00
:10042800194610467FEA655C1CBF0B46024650EA37
:10043800013406BF52EA033591EA030F41F4002163
:1004480030BD00BF90F0000F04BF0021704730B5E9
:100458004FF4806404F132044FF000054FF00001BE
:1004680050E700BF90F0000F04BF0021704730B57F
:100478004FF4806404F1320410F0004548BF404254
:100488004FF000013EE700BF42004FEAE2014FEAA9
:1004980031014FEA02701FBF12F07F4393F07F4F84
:1004A80081F06051704732F07F4208BF704793F087
:1004B8007F4F04BF41F40021704730B54FF460749A
:1004C80001F0004521F000411CE700BF50EA01029D
:1004D80008BF704730B54FF000050AE050EA010246
:1004E80008BF704730B511F0004502D5404261EBB6
:1004F80041014FF4806404F132045FEA915C3FF4F7
:10050800D8AE4FF003025FEADC0C18BF03325FEA93
:10051800DC0C18BF033202EBDC02C2F1200300FA44
:1005280003FC20FA02F001FA03FE40EA0E0021FA69
:1005380002F11444BDE600BF70B54FF0FF0C4CF457
:10054800E06C1CEA11541DBF1CEA135594EA0C0F09
:1005580095EA0C0F00F0DEF82C4481EA030621EA44
:100568004C5123EA4C5350EA013518BF52EA03357F
:1005780041F4801143F4801338D0A0FB02CE4FF031
:100588000005E1FB02E506F00042E0FB03E54FF061
:100598000006E1FB03569CF0000F18BF4EF0010E59
:1005A800A4F1FF04B6F5007F64F5407404D25FEA55
:1005B8004E0E6D4146EB060642EAC62141EA555108
:1005C8004FEAC52040EA5E504FEACE2EB4F1FD0C4A
:1005D80088BFBCF5E06F1ED8BEF1004F08BF5FEAC8
:1005E800500E50F1000041EB045170BD06F000467A
:1005F80046EA010140EA020081EA0301B4EB5C0427
:10060800C2BFD4EB0C0541EA045170BD41F480111E
:100618004FF0000E013C00F3AB8014F1360FDEBF43
:10062800002001F0004170BDC4F10004203C35DA1F
:100638000C341BDC04F11404C4F1200500FA05F3A2
:1006480020FA04F001FA05F240EA020001F0004243
:1006580021F0004110EBD37021FA04F642EB0601B9
:100668005EEA430E08BF20EAD37070BDC4F10C04E3
:10067800C4F1200500FA04F320FA05F001FA04F2A7
:1006880040EA020001F0004110EBD37041F1000193
:100698005EEA430E08BF20EAD37070BDC4F120059E
:1006A80000FA05F24EEA020E20FA04F301FA05F206
:1006B80043EA020321FA04F001F0004121FA04F2AE
:1006C80020EA020000EBD3705EEA430E08BF20EA7E
:1006D800D37070BD94F0000F0FD101F000464000B8
:1006E80041EB010111F4801F08BF013CF7D041EA3A
:1006F800060195F0000F18BF704703F0004652003E
:1007080043EB030313F4801F08BF013DF7D043EA0E
:100718000603704794EA0C0F0CEA135518BF95EAC4
:100728000C0F0CD050EA410618BF52EA4306D1D14B
:1007380081EA030101F000414FF0000070BD50EA6A
:10074800410606BF1046194652EA430619D094EAF4
:100758000C0F02D150EA013613D195EA0C0F05D1DE
:1007680052EA03361CBF104619460AD181EA030132
:1007780001F0004141F0FE4141F470014FF00000EA
:1007880070BD41F0FE4141F4780170BD70B54FF085
:10079800FF0C4CF4E06C1CEA11541DBF1CEA135505
:1007A80094EA0C0F95EA0C0F00F0A7F8A4EB0504E7
:1007B80081EA030E52EA03354FEA013100F08880DE
:1007C8004FEA03334FF0805545EA131343EA1263A7
:1007D8004FEA022245EA111545EA10654FEA00265C
:1007E8000EF000419D4208BF964244F1FD0404F515
:1007F800407402D25B084FEA3202B61A65EB030571
:100808005B084FEA32024FF480104FF4002CB6EB2D
:10081800020E75EB030E22BFB61A754640EA0C00AD
:100828005B084FEA3202B6EB020E75EB030E22BFED
:10083800B61A754640EA5C005B084FEA3202B6EB2E
:10084800020E75EB030E22BFB61A754640EA9C00ED
:100858005B084FEA3202B6EB020E75EB030E22BFBD
:10086800B61A754640EADC0055EA060E18D04FEA7B
:10087800051545EA16754FEA06164FEAC30343EA1B
:1008880052734FEAC2025FEA1C1CC0D111F4801FE8
:100898000BD141EA00014FF000004FF0004CB6E7E1
:1008A80011F4801F04BF01430020B4F1FD0C88BF80
:1008B800BCF5E06F3FF6AFAEB5EB030C04BFB6EB8B
:1008C800020C5FEA500C50F1000041EB045170BD7E
:1008D8000EF0004E4EEA113114EB5C04C2BFD4EBAB
:1008E8000C0541EA045170BD41F480114FF0000E2F
:1008F800013C90E645EA060E8DE60CEA135594EAAB
:100908000C0F08BF95EA0C0F3FF43BAF94EA0C0FAD
:100918000AD150EA01347FF434AF95EA0C0F7FF422
:1009280025AF104619462CE795EA0C0F06D152EA76
:1009380003353FF4FDAE1046194622E750EA41065A
:1009480018BF52EA43067FF4C5AE50EA41047FF46B
:100958000DAF52EA43057FF4EBAE12E74FF0FF3CD0
:1009680006E000BF4FF0010C02E000BF4FF0010CA1
:100978004DF804CD4FEA410C7FEA6C5C4FEA430C1A
:1009880018BF7FEA6C5C1BD001B050EA410C0CBF69
:1009980052EA430C91EA030F02BF90EA020F0020CB
:1009A800704710F1000F91EA030F58BF994208BF32
:1009B80090422CBFD8176FEAE37040F001007047EF
:1009C8004FEA410C7FEA6C5C02D150EA013C07D146
:1009D8004FEA430C7FEA6C5CD6D152EA033CD3D091
:1009E8005DF8040B704700BF8446104662468C468B
:1009F8001946634600E000BF01B5FFF7B7FF0028BE
:100A080048BF10F1000F01BD4DF808EDFFF7F4FFE6
:100A18000CBF012000205DF808FB00BF4DF808ED71
:100A2800FFF7EAFF34BF012000205DF808FB00BF94
:100A38004DF808EDFFF7E0FF94BF012000205DF8B6
:100A480008FB00BF4DF808EDFFF7CEFF94BF01206B
:100A580000205DF808FB00BF4DF808EDFFF7C4FF64
:100A680034BF012000205DF808FB00BF4FEA4102B7
:100A7800B2F1E04324BFB3F5001CDCF1FE5C0DD9F4
:100A880001F0004C4FEAC0024CEA5070B2F1004F3E
:100A980040EB830008BF20F00100704711F0804F41
:100AA80021D113F13872BCBF01F00040704741F406
:100AB80080114FEA5252C2F11802C2F1200C10FA0A
:100AC8000CF320FA02F018BF40F001004FEAC123EE
:100AD8004FEAD32303FA0CFC40EA0C0023FA02F392
:100AE8004FEA4303CCE77FEA625307D150EA013368
:100AF8001EBF4FF0FE4040F44000704701F0004038
:100B080040F0FE4040F40000704700BF53B94AB9B6
:100B1800002908BF00281CBF4FF0FF314FF0FF30FD
:100B280000F00CB8ADF1080C6DE904CE05F058F9E9
:100B3800DDF804E0DDE9022304B07047704700BF28
:100B480010B5054C237833B9044B13B10448AFF3FF
:100B580000800123237010BD280000200000000041
:100B6800E060000808B5034B1BB103490348AFF325
:100B7800008008BD000000002C000020E060000894
:100B880070B52DED068B5A4B93ED027ADFED597A4D
:100B980067EE277A17EE900AFFF776FC564BD3E9F3
:100BA8000023FFF713FB04460D464FA3D3E90023A8
:100BB800FFF752FF002800F081804BA3D3E9002300
:100BC80020462946FFF700FB04460D4620462946E5
:100BD800FFF74CFF08EE100AB0EE480A05F010F8CF
:100BE800B0EE409AB0EE480A04F0C4FF404ED6ED8D
:100BF800007A67EE898A96ED017A67EE006A78EEE8
:100C0800E68ABEEE00AA28EE8A8A67EE807A27EE88
:100C1800097A77EE877A9FED397A67EE877A78EEE8
:100C2800279A38EE678AF0EE690AB0EE680A05F08E
:100C380093F8F0EE480A05F08FF8B0EE409AF0EE1F
:100C4800690AB0EE680A05F05FF8F0EE480A05F0A8
:100C58005BF839EE000A20EE0A0A78EE808AF1EE97
:100C6800688A96ED036AC8EE867AF6EE006A77EE31
:100C7800A67A9FED237A67EE877A224BC3ED007A36
:100C880079EE809AF1EE699AC9EE867A77EEA67ABD
:100C980067EE877AC3ED017A38EE008AB1EE488AAA
:100CA800C8EE067A77EEA67A67EE877AC3ED027AFF
:100CB800114BC3E90045BDEC068B70BD0022002333
:100CC80020462946FFF7AAFE00283FF47FAF06A377
:100CD800D3E9002320462946FFF778FA04460D4653
:100CE80074E700BFAFF30080182D4454FB2119406E
:100CF80050000020BEB5243A60000020D7B35D3F05
:100D08000000FA454400002010B58CB00024089477
:100D180009940A940B9420222146684604F0BAFFED
:100D28002048214B03604FF48033436084600461A2
:100D3800047680F82040C4621C4B8362C46001239F
:100D4800C36180F83040436101F0EEF800BB0A232C
:100D580008930123099300230A9308A9114801F075
:100D6800B5FAC0B9002300930122019204920293BC
:100D78004FF48012079206938DF815308DF81430D1
:100D880003936946074801F0FDFB38B90CB010BD64
:100D980000F0E0FEDBE700F0DDFEE3E700F0DAFE5E
:100DA800F4E700BFF8000020002001400100000F18
:100DB80010B58CB00024089409940A940B9420224E
:100DC8002146684604F066FF2048214B03604FF433
:100DD8008033436084600461047680F82040C462F4
:100DE8001C4B8362C4600123C36180F830404361B7
:100DF80001F09AF800BB0923089301230993002303
:100E08000A9308A9114801F061FAC0B901230093B7
:100E180001930493002302934FF4801207920693E0
:100E28008DF815308DF8143003936946074801F0A2
:100E3800A9FB38B90CB010BD00F08CFEDBE700F060
:100E480089FEE3E700F086FEF4E700BFB00000206B
:100E5800002101400100000F10B58CB00024089457
:100E680009940A940B9420222146684604F012FF44
:100E78002048214B03604FF4803343608460046151
:100E8800047680F82040C4621C4B8362C46001234E
:100E9800C36180F83040436101F046F808BB032382
:100EA80008930123099300230A9308A9114801F024
:100EB8000DFAC8B902230093012301930493002378
:100EC80002934FF48012079206938DF815308DF82F
:100ED800143003936946074801F054FB38B90CB045
:100EE80010BD00F037FEDAE700F034FEE2E700F06C
:100EF80031FEF4E768000020002201400100000FE5
:100F0800F0B58FB0002309930A930B930C930D93BC
:100F18000368524A934207D0514A93423DD0514AFE
:100F2800934273D00FB0F0BD002401944E4B5A6C1D
:100F380042F480725A645A6C02F480720192019AE7
:100F480002941A6B42F004021A631A6B02F004024C
:100F58000292029A03941A6B42F001021A631B6B05
:100F680003F001030393039B0127099703260A96BD
:100F780009AD29463D4801F077FF09970A960B9479
:100F880029463B4801F070FF22462146122001F015
:100F9800F7FC122001F004FDC4E700240494324B4E
:100FA8005A6C42F400725A645A6C02F40072049249
:100FB800049A05941A6B42F001021A631A6B02F044
:100FC80001020592059A06941A6B42F002021A630E
:100FD8001B6B03F002030693069B0227099703265F
:100FE8000A9609AD2946224801F03EFF09970A965C
:100FF8000B9429461F4801F037FF2246214612204C
:1010080001F0BEFC122001F0CBFC8BE70024079412
:10101800154B5A6C42F480625A645A6C02F480622E
:101028000792079A08941A6B42F001021A631B6B25
:1010380003F001030893089B0C23099303230A93E5
:1010480009A90B4801F010FF22462146122001F0A1
:1010580097FC122001F0A4FC64E700BF00200140C7
:1010680000210140002201400038024000080240EF
:10107800000002400004024008B50B480B4B036017
:101088001023436000238360C360036143610376D8
:1010980043768376C3760377437701F077FB00B90D
:1010A80008BD00F057FDFBE7400100200064004048
:1010B80000B589B00023039304930593069307931F
:1010C8000268154B9A4202D009B05DF804FB002172
:1010D800019103F5EA331A6C42F000721A641A6C33
:1010E80002F000720192019A02911A6B42F0020218
:1010F8001A631B6B03F002030293029B4FF44073C5
:10110800039302230493032306930923079303A954
:10111800024801F0A9FED7E700640040000402403D
:10112800F0B587B000F0F2F93B4C01224FF40051C2
:10113800204601F090FF01224FF48041204601F043
:101148008AFF01224FF40041204601F084FF334E0C
:101158003349304600F072FA304600F01BFB0A2093
:1011680000F034FE012505950024049403940294AC
:101178000194009523462A462146304600F090FA0D
:101188000A2000F023FE032705970495039502958E
:101198000194009723462A462146304600F0C2FAB9
:1011A8000A2000F013FE0597049403940294019515
:1011B800009723462A462146304600F0B3FA0A2013
:1011C80000F004FE0F23019300973B462246294670
:1011D800304600F090FA304600F0CFFA0A2000F0CE
:1011E800F5FD04F07DFC0F4C84ED030A00F050F986
:1011F80004F06EFC00F076FB00F026FD002323606F
:10120800094B63604FF08143A36000F033FD022077
:1012180000F0AAFD07B0F0BD000402407C010020E8
:1012280018040020500000200000404108B504F0D8
:1012380057FC024B83ED030A08BD00BF5000002095
:1012480010B584B001A800F03BF9FFF799FC184AE3
:10125800D2ED006AFCEEE67A164BC3ED0D7A92EDFC
:10126800017AFCEEC77AC3ED0E7AD2ED027AFCEE73
:10127800E77AC3ED0F7A104B019A1A60029A5A6006
:10128800039A9A60C3ED036A83ED047A0B4CA64671
:101298009C46BCE80F00AEE80F00DCF80030CEF842
:1012A80000301821204600F03DF904B010BD00BF01
:1012B80044000020000001406801002000000020D8
:1012C80008B503685C4A934213D05C4A934240D005
:1012D8005B4A93426DD05B4A12784AB15A4A1278F7
:1012E80032B15A4A12781AB1534A934200F09280A6
:1012F80008BD574A1268D2ED0F7AF8EE677A514A5C
:101308001278C2B9534A92ED007A77EE877AC2ED25
:10131800007A51490A88013212B20A80642ADAD165
:10132800DFED4E6A87EEA67A4A4A82ED007A454A90
:1013380001211170CFE7474A92ED007A77EEC77A1C
:10134800474A92ED007A67EE877A464AC2ED007AFC
:10135800C1E7454A1268D2ED0F7AF8EE677A3A4A41
:101368001278C2B9414A92ED007A77EE877AC2EDD7
:10137800007A3F490A88013212B20A80642AAAD147
:10138800DFED366A87EEA67A384A82ED007A2E4A71
:10139800012111709FE7354A92ED007A77EEC77AFE
:1013A8002F4A92ED007A67EE877A324AC2ED007AC8
:1013B80091E7314A1268D2ED0F7AF8EE677A234A3C
:1013C8001278CAB92D4A92ED007A77EE877AC2ED83
:1013D800007A2B490A88013212B20A80642A7FF403
:1013E8007AAFDFED1E6A87EEA67A244A82ED007A8C
:1013F800164A012111706EE7204A92ED007A77EEC5
:10140800C77A174A92ED007A67EE877A1D4AC2EDCD
:10141800007A60E74FF400511B4801F022FE1B4B95
:10142800104A12681A60134A12685A60154A1268FC
:101438009A60FFF705FF5BE70020014000210140AB
:10144800002201409601002095010020940100200F
:10145800F8000020B0010020840100200000C842EC
:10146800A4010020A0010020B0000020AC01002051
:10147800820100209C01002068000020A8010020B3
:101488008001002098010020000802408801002007
:1014980008B5064B064A1A60064800F0EDFF0648F4
:1014A80000F0EAFF054800F0E7FF08BDA4010020AE
:1014B8000000843BF8000020B000002068000020F5
:1014C8000E4A127882B103460D4A12787AB10D4A53
:1014D80012787AB110B40C4C07CC186059609A6035
:1014E80000205DF8044B70474FF0FF3070474FF015
:1014F800FF3070474FF0FF30704700BF9601002063
:1015080095010020940100208801002008B54FF4BF
:1015180080720249024803F0D3FF08BDB4010020DD
:1015280010060020B1F5807F0DD838B50C46074D60
:101538000A460146284604F0D9FB224629460448B3
:1015480003F0AEFC38BD4FF0FF307047B402002006
:1015580010060020704700000368124A934200D02A
:10156800704700B583B0002200921968009159684D
:101578000091009901921A6801925B680193019B9E
:10158800202380F842304FF48072074903F0AAFF05
:10159800064B1A68136823F00803136003B05DF85C
:1015A80004FB00BF00480040B401002050050020A3
:1015B80010B582B0002401940D4B1A6B42F400124E
:1015C8001A631B6B03F400130193019B2246214607
:1015D8000C2001F0D5F90C2001F0E2F92246214651
:1015E8000E2001F0CDF90E2001F0DAF902B010BD9D
:1015F8000038024030B587B00446ADF80E100E4DE5
:1016080000220421284601F026FD0A2000F0DEFB16
:101618004FF47A73009301230DF116020DF10E01B8
:10162800206802F0FCFA01220421284601F013FD8B
:10163800BDF8160007B030BD000C024010B50160BF
:101648000E4C00224FF48071204601F004FD012267
:101658008021204601F0FFFC0A2000F0B7FB0122A0
:101668004FF48071204601F0F6FC002280212046CC
:1016780001F0F1FC0A2000F0A9FB10BD00080240AF
:1016880008B56FEA01716FEA514189B2FFF7B2FFFD
:1016980008BD08B542EAC12189B2FFF7ABFF08BD12
:1016A80008B5490241F4805109B241EA022109B260
:1016B80041EAC3131BB2BDF8082043EA42131BB228
:1016C800BDF80C2043EA02131BB2BDF8102043EA10
:1016D800C2031BB2BDF8142043EA82031BB2BDF853
:1016E800182043EA42031BB2BDF81C10194389B203
:1016F800FFF780FF08BD08B5890241F4205109B2FF
:1017080041EA022109B241EA83131BB2BDF808205D
:1017180043EA02131BB2BDF80C10194389B2FFF754
:1017280069FF08BD08B5890241F4405109B241EA90
:10173800422109B241EA03231BB2BDF8082043EA5B
:1017480082131BB2BDF80C2043EA42131BB2BDF84A
:10175800102043EA02131BB2BDF8142043EAC20367
:101768001BB2BDF8182043EA82031BB2BDF81C1057
:10177800194389B2FFF73EFF08BD10B504460221A0
:10178800FFF77EFF20F0040292B202212046FFF705
:1017980080FF10BD08B54FF400620621FFF779FFFE
:1017A80008BD00002DE9F0478AB005AD0024059476
:1017B80006940794089409940094454B1A6B42F0D8
:1017C80004021A631A6B02F004020092009A019450
:1017D8001A6B42F080021A631A6B02F080020192BF
:1017E800019A02941A6B42F001021A631A6B02F012
:1017F80001020292029A03941A6B42F002021A63DF
:101808001A6B02F002020392039A04941A6B42F0D4
:1018180008021A631B6B03F008030493049B2D4F03
:10182800224642F2CE11384601F015FCDFF8A8A096
:10183800224648F22001504601F00DFCDFF89C805A
:1018480022464EF22001404601F005FCDFF8909058
:1018580001220421484601F0FEFB012208214046EE
:1018680001F0F9FB42F2CE13059301260696079480
:1018780008942946384601F0F7FA48F22003059300
:101888000696079408942946504601F0EDFA4EF260
:10189800280305930696079408942946404601F0C4
:1018A800E3FA4FF4007305934FF4881306930794F3
:1018B8002946384601F0D8FA04230593069607947A
:1018C80008942946484601F0CFFA0AB0BDE8F087E7
:1018D80000380240000802400000024000040240B4
:1018E800000C024008B5024803F012F808BD00BF1A
:1018F800C00400200000000038B50268544B9A422A
:1019080000D038BD0021534802F0FBFB07EE900AD7
:10191800F8EE677A504BC3ED007A9FED507AC7EE28
:10192800877A17EE900AFEF7AFFD02460B4640A1F4
:10193800D1E90001FEF72AFF04460D463EA3D3E98C
:101948000023FEF723FFFFF791F8454B18600022AC
:10195800444B20462946FEF7EFFD39A3D3E900237F
:10196800FEF714FFFFF782F83F4B186001213F484C
:1019780001F06AFB04463E4D8021284601F064FBD5
:1019880044EA400464B24021284601F05DFB44EA81
:1019980080035BB2013B052B07D8DFE803F0372F44
:1019A8003327032B334B344A1A60324BD3ED007A7A
:1019B800F5EEC07AF1EE10FA2CD417EE900AFEF785
:1019C80063FD04460D4620A3D3E90023FFF744F83E
:1019D800002896D01CA3D3E9002320462946FEF709
:1019E800F3FBFFF743F8234B18608AE7214B234AA0
:1019F8001A60DAE71F4B224A1A60D6E71D4B214AC4
:101A08001A60D2E71B4B204A1A60CEE7194B1F4ACF
:101A18001A60CAE717EE900AFEF736FD0AA3D3E963
:101A28000023FEF7D3FBFFF721F8124B186068E795
:101A380061732D3852C1F03F000000000088C34098
:101A4800112D4454FB212940112D4454FB211940E8
:101A580000040040C0040020B40300208096184B06
:101A6800C003002000003E40B803002000040240EC
:101A780000000240BC030020920A8640368DA74031
:101A8800DB0FC9407F92EA40920A0641E4CB164137
:101A980008B50B480B4B03600B4B43600023836076
:101AA800C3604FF48042026143618361C361036292
:101AB80001F0E0FA00B908BD00F04CF8FBE700BF00
:101AC800C403002000540040A086010030B589B04E
:101AD8000023039304930593069307930268144B1A
:101AE8009A4201D009B030BD00250195114C236BF5
:101AF80043F002032363236B03F002030193019B6A
:101B0800C023039312230493032306930423079308
:101B180003A9094801F0A8F90295236C43F40013BE
:101B28002364236C03F400130293029BDAE700BFDB
:101B380000540040003802400004024008B5026822
:101B4800034B9A4200D008BD00F02EF9FBE700BF16
:101B58000010004072B6FEE710B594B007AC34220E
:101B68000021204604F096F800230293039304937F
:101B7800059306930093204A116C41F0805111643B
:101B8800126C02F080520092009A01931B4B1A6863
:101B980042F440421A601B6803F440430193019BDE
:101BA800012307934FF48033089302230D934FF4D6
:101BB80080020E9208220F92A02210921193129383
:101BC8001393204601F006FD90B90F2302930223D8
:101BD8000393002304934FF4A05305934FF48053C9
:101BE8000693052102A801F03FFB18B914B010BDF7
:101BF800FFF7B0FFFFF7AEFF00380240007000406B
:101C080008B500F0B7F8FFF7A7FFFFF7CBFDFFF720
:101C1800CFFCFFF731FA03F009FEFFF775F8FFF77D
:101C2800C7F8FFF719F9FFF733FF00F041F803F0A1
:101C380099FE03F0EFFC0A2000F0C8F8FFF770FAED
:101C4800FFF7F4FAFCE7000010B5084B41F63F72C5
:101C5800DA6241F63E721A64054C204602F0D0F969
:101C68000C21204602F05CFD10BD00BF00000140C1
:101C78000805002010B50D4C0021204602F050FD4B
:101C88000421204602F04CFD0821204602F048FDC0
:101C98000021204602F0A2FE0421204602F09EFE0A
:101CA8000821204602F09AFE10BD00BF080500205A
:101CB80008B50F480F4B03604FF48273436000234D
:101CC80083604FF40062C2600361012242614FF4F5
:101CD800007282611822C2610362436283620A232E
:101CE800C36201F03DFF00B908BDFFF733FFFBE712
:101CF80018040020003C004000B589B0002303937D
:101D080004930593069307930268154B9A4202D0F1
:101D180009B05DF804FB0021019103F5FE331A6C4C
:101D280042F400421A641A6C02F400420192019AC9
:101D380002911A6B42F004021A631B6B03F004034E
:101D48000293029B4FF4E05303930223049303236B
:101D580006930623079303A9024801F085F8D7E7FD
:101D6800003C004000080240014B1870704700BF5B
:101D78007004002008B50B4B1A6842F400721A6010
:101D88001A6842F480621A601A6842F480721A6013
:101D9800032000F0E3FD0F2002F00AFF01F048FAEB
:101DA800002008BD003C0240034A1168034B1B7821
:101DB8000B441360704700BF740400201800002013
:101DC800014B1868704700BF7404002038B50446FA
:101DD800FFF7F6FF0546B4F1FF3F02D0044B1B782E
:101DE8001C44FFF7EDFF401BA042FAD338BD00BFEB
:101DF800180000204A4B5A6822F440325A605A6848
:101E080041680A435A600268536823F48073536038
:101E180002685368016943EA012353600268536802
:101E280023F0407353600268536881680B43536022
:101E38000268936823F40063936002689368C1683A
:101E48000B439360826A374B9A4257D00268936873
:101E580023F07063936002689368816A0B43936010
:101E68000268936823F04053936002689368C16ADC
:101E78000B4393600268936823F00203936002683F
:101E88009368017E43EA4103936090F82030002B69
:101E98003FD00268536843F4006353600268536894
:101EA80023F46043536001684B68426A013A43EA8D
:101EB80042334B600268D36A23F47003D36201682B
:101EC800CB6AC269013A43EA0253CB62026893685B
:101ED80023F4007393600268936890F8301043EA23
:101EE800412393600268936823F4806393600268D7
:101EF8009368416943EA8123936070470268936855
:101F080023F0706393600268936823F040539360F2
:101F1800B0E70268536823F400635360CAE700BF60
:101F2800002301400100000F38B310B50446036CCC
:101F380043B1236C13F0100F0BD00120002384F859
:101F48003C3010BDFEF7DCFF0023636484F83C30AE
:101F5800EFE7236C23F4885323F0020343F00203D2
:101F680023642046FFF746FF00206064236C23F0BB
:101F7800030343F001032364E0E7012070470000F6
:101F880082B00023019390F83C30012B00F0898047
:101F9800012380F83C3003689A6812F0010F13D1CE
:101FA8009A6842F001029A60414B1B68414AA2FBC1
:101FB80003239B0C03EB4303019302E0019B013BCA
:101FC8000193019B002BF9D10268936813F0010F6C
:101FD8005CD0036C23F4E06323F0010343F48073C3
:101FE8000364536813F4806F05D0036C23F44053E3
:101FF80043F480530364036C13F4805F1BD0436C79
:1020080023F006034364002380F83C306FF022037A
:102018001360294B5B6813F01F0F27D10368274A09
:10202800934211D002F58072934207D0244A93421A
:1020380014D0002033E000234364E4E702F5007283
:10204800526812F01F0FF1D19A6812F0405F2AD13E
:102058009A6842F080429A60002020E002F580727F
:10206800526812F0100FEFD0002018E00368134AEE
:10207800934201D0002012E09A6812F0405F14D118
:102088009A6842F080429A60002008E0036C43F0AE
:1020980010030364436C43F001034364002002B05F
:1020A80070470220FBE70020F9E70020F7E700BFB0
:1020B8002000002083DE1B43002301400020014054
:1020C8000022014070B504460D4603689A6812F470
:1020D800806F03D09B6813F4807F19D1FFF770FEDF
:1020E800064623681A6812F0020F20D1B5F1FF3FA7
:1020F800F7D0B5B923681B6813F0020FF1D1236C30
:1021080043F004032364002384F83C30032032E0C6
:10211800036C43F020030364002380F83C30012063
:1021280029E0FFF74DFE801BA842DAD9E2E76FF0FD
:1021380012021A60236C43F40073236423689A68BC
:1021480012F0405F16D1207EB0B9DA6A12F4700F2F
:1021580003D09B6813F4806F0DD1236C23F4807334
:102168002364236C13F4805F05D1236C43F00103CF
:10217800236400E0002070BD0020FCE70368D86CF1
:10218800704770477047704770B5044603681E680B
:102198005D6816F0020F2FD005F0200262B3026CC2
:1021A80012F0100F03D1026C42F4007202649A68B4
:1021B80012F0405F19D1227EBAB9DA6A12F4700FB0
:1021C80003D09A6812F4806F0FD15A6822F0200267
:1021D8005A60236C23F480732364236C13F4805FA8
:1021E80003D1236C43F0010323642046FFF7C9FFA2
:1021F80023686FF012021A6005F0800316F0040FCE
:1022080037D0002B35D0236C13F0100F03D1236C7B
:1022180043F40053236423689A6812F4401F21D1C1
:102228009A6B12F4401F03D09A6812F4806F19D188
:102238005A6812F4806F15D19A6812F0405F11D174
:10224800227E7AB95A6822F080025A60236C23F4FD
:1022580080532364236C13F4807F03D1236C43F0F1
:10226800010323642046FFF72BF823686FF00C0264
:102278001A6005F0400316F0010F05D023B123685A
:102288001B6813F0010F06D105F0806516F0200FCA
:1022980000D065B970BD236C43F4803323642046B5
:1022A800FFF770FF23686FF001021A60ECE7636CB8
:1022B80043F00203636423686FF020051D60204625
:1022C800FFF761FF23681D60E4E7000030B482B0C7
:1022D8000022019290F83C20012A00F0C0800346B9
:1022E800012280F83C200A68092A40D90468E0687D
:1022F80092B202EB42021E3A4FF0070C0CFA02F2BD
:1023080020EA0202E2601C68E0680A8802EB4202E6
:102318001E3A8D6805FA02F20243E2604A68062A0C
:102328003CD81C68606B02EB8202053A4FF01F0C28
:102338000CFA02F220EA020262631C68606B4A68C7
:1023480002EB8202053AB1F800C00CFA02F202432D
:1023580062631868434A904250D01868414A9042D4
:1023680059D0002083F83C0002B030BC70470468A4
:10237800206992B202EB42024FF0070C0CFA02F20B
:1023880020EA020222611C6820690A8802EB4202E4
:102398008D6805FA02F202432261BFE70C2A16D8BB
:1023A8001D68286B02EB8202233A1F2404FA02F20A
:1023B80020EA02022A631D68286B4A6802EB82023F
:1023C800233A0C8804FA02F202432A63C1E71D6823
:1023D800E86A02EB8202413A1F2404FA02F220EA78
:1023E8000202EA621D68E86A4A6802EB8202413A20
:1023F8000C8804FA02F20243EA62AAE70A68122A7F
:10240800ABD1194A506820F400005060506840F47D
:1024180080005060A1E70A681448824201D0112A5E
:102428009FD1114A506820F480005060506840F4F1
:102438000000506009680D4A914292D10C4A126816
:102448000C49A1FB0212920C02EB8202520001928B
:10245800019A002A85D0019A013A0192F8E70220F0
:1024680082E700BF00200140002301401200001055
:102478002000002083DE1B4382B00023019390F8E4
:102488003C30012B6CD0012380F83C3003689A68FB
:1024980012F0010F13D19A6842F001029A60354B8D
:1024A8001B68354AA2FB03239B0C03EB43030193F0
:1024B80002E0019B013B0193019B002BF9D10268CB
:1024C800936813F0010F40D0036C23F4405323F0BA
:1024D800010343F480530364036C13F4807F01D138
:1024E80000234364002380F83C306FF0040313603A
:1024F8000268536843F080035360204B5B6813F015
:102508001F0F0ED102689168536803F4806311F4B9
:10251800401F27D143BB936843F480039360002096
:102528001CE003689A6802F44012596801F480615B
:102538001348834201D0002010E0BAB9C1B99A68A3
:1025480042F480029A60002008E0036C43F0100314
:102558000364436C43F001034364002002B07047F6
:102568000220FBE70020F9E70020F7E70020F5E765
:102578000020F3E72000002083DE1B4300230140F6
:102588000020014090F83C20012A00F0F48030B48B
:102598000346012280F83C200A68092A40F2898013
:1025A8000568E86892B202EB42021E3A072404FA70
:1025B80002F220EA0202EA601D68E8688C680A886C
:1025C80002EB42021E3A94402043E8601868826B8E
:1025D80022F4401282631C68A26B0869013842EA3F
:1025E8000052A2631C68A06B4A680D69521BD2B2E4
:1025F8000332D2B202EB82024FF01F0C0CFA02F245
:1026080020EA0202A2631C68A06B4A680D69521B8B
:10261800D2B20332D2B202EB8202B1F800C00CFA95
:1026280002F20243A2638869544A904256D018685D
:10263800826822F470228260186882688C6922435A
:1026480082601868826822F4401282601868826882
:10265800CC69224382604A7D002A4AD018684268C1
:1026680042F4806242600A7D002A48D018684268B5
:1026780042F4805242604A68022A46D0032A4FD068
:10268800012A58D1186842696FF30B024261186831
:102698004269CC68224342611868394A904255D051
:1026A8001868374A90425AD0002083F83C0030BC62
:1026B80070470568286992B202EB4202072404FABF
:1026C80002F220EA02022A611D6828698C680A88D9
:1026D80002EB420294402043286177E71868826839
:1026E80022F4702282601868826822F440128260A4
:1026F800B1E71868426822F480624260B3E718685C
:10270800426822F480524260B5E7186882696FF324
:102718000B02826118688269CC6822438261BBE738
:102728001868C2696FF30B02C2611868C269CC6885
:102738002243C261B0E71868026A6FF30B020262B3
:102748001868026ACC6822430262A5E70A68122A5E
:10275800A6D10C48426842F480024260A0E70A68A9
:1027680009498A4201D0112A9ED106494A6842F491
:1027780000024A6098E70220704700BF01000F007E
:10278800002001400023014012000010002800F042
:10279800A18038B5044690F82030D3B12268136878
:1027A80043F001031360FFF70BFB054623685A68E3
:1027B80012F0010F10D1FFF703FB401B0A28F5D9CF
:1027C800636A43F400336362052384F820300120F0
:1027D80038BDFEF76DFCE1E71A6822F002021A60C4
:1027E800FFF7EEFA054623685A6812F0020F0DD07B
:1027F800FFF7E6FA401B0A28F5D9636A43F4003369
:102808006362052384F820300120E1E7227E012A53
:102818003DD01A6822F080021A60637E012B3BD0FB
:102828002268136823F040031360A37E012B39D07C
:102838002268136823F020031360E37E012B37D04E
:102848002268136843F010031360237F012B35D0EF
:102858002268136823F008031360637F012B33D0C9
:102868002268136823F004031360A368E268134323
:1028780022691343626913436268013A216813436A
:10288800CB6100206062012384F82030A0E71A6839
:1028980042F080021A60C0E72268136843F04003E0
:1028A8001360C2E72268136843F020031360C4E78B
:1028B8002268136823F010031360C6E722681368C0
:1028C80043F008031360C8E72268136843F0040361
:1028D8001360CAE701207047002807DB00F01F02D9
:1028E800400901239340024A42F82030704700BF54
:1028F80000E100E0002808DB0901C9B200F16040EE
:1029080000F5614080F80013704700F00F000901DE
:10291800C9B2014B1954704714ED00E000B500F03E
:102928000700C0F1070CBCF1040F28BF4FF0040CDE
:10293800031D062B0FD9C31E4FF0FF3E0EFA0CF0F5
:1029480021EA000199400EFA03FE22EA0E0241EA4A
:1029580002005DF804FB0023EEE70000074AD36895
:1029680023F4E0631B041B0C000200F4E060034343
:1029780043F0BF6343F40033D360704700ED00E0D9
:1029880010B50446054BD868C0F30220FFF7C6FF10
:1029980001462046FFF7AEFF10BD00BF00ED00E086
:1029A80008B5FFF799FF08BD30B405682C6824F412
:1029B80080242C60046863608368402B05D003681A
:1029C80099600368DA6030BC704703689A600368EE
:1029D800D960F8E710B40368D9B210390A4AA2FBE3
:1029E80001421209094CA25CC2655F2907D96FF33D
:1029F800090304338365806D5DF8044B70476FF3FA
:102A080009038365F7E700BFABAAAAAAF860000824
:102A1800836A826992B9012B0AD0022B02D00BB1CA
:102A280000207047C36A13F0807F28D100207047C8
:102A3800C36AB3F1C07F24D000207047B2F5005FAD
:102A480009D0022B25D9032B25D1C36A13F0807F27
:102A580023D100207047032B03D8DFE803F01404C8
:102A6800140A00207047C36A13F0807F0DD100203C
:102A78007047C36AB3F1C07F09D0002070470120B6
:102A880070470120704701207047012070470120DE
:102A980070470120704700207047012070470000F0
:102AA80070B50446FFF78CF9002C5BD0054602236D
:102AB80084F83530002384F834302268136823F012
:102AC8000103136023681A6812F0010F0AD0FFF798
:102AD80077F9431B052BF5D920236365032084F878
:102AE800350070BD1A68204911406268A068024329
:102AF800E06802432069024360690243A069024317
:102B0800E0690243206A02430A43616A04291ED02D
:102B18001A602668756925F00705636A1D43042B4A
:102B280007D1A36A1D43E36A1BB12046FFF770FF74
:102B380090B975612046FFF74DFFE26D3F23934042
:102B4800836000206065012384F83530C9E7E16AB5
:102B5800206B01430A43DBE740236365012084F8C7
:102B68003500BEE70120BCE73F8010F038B50446C9
:102B7800856D90F8340001282AD0012084F83400AB
:102B880094F83500012804D0002384F8343002205A
:102B980038BD022084F83500002060652046FFF724
:102BA80003FFE26D3F239340AB602268136843F054
:102BB80016031360236C23B12268136843F00803DB
:102BC80013602268136843F0010313600020DFE7F5
:102BD8000220DDE770B50446866DFFF7F1F894F83A
:102BE8003530022B06D080236365002384F8343007
:102BF800012070BD05462268136823F01603136090
:102C08002268536923F080035361236CE3B122687F
:102C1800136823F0080313602268136823F0010384
:102C2800136023681B6813F0010F11D0FFF7C8F871
:102C3800431B052BF5D920236365032084F8350051
:102C4800002384F83430D4E7A36C002BDFD1E3E70A
:102C5800E26D3F239340B360012384F835300020B0
:102C680084F83400C5E790F83530022B03D0802370
:102C7800436501207047052380F8353002681368E2
:102C880023F001031360002070470000F0B583B003
:102C9800044600230193724B1D68724BA3FB053554
:102CA800AD0A876D3E68C26D08239340334210D049
:102CB80003681A6812F0040F0BD01A6822F0040295
:102CC8001A60C26D08239340BB60436D43F0010353
:102CD8004365E26D01239340334209D0226852696B
:102CE80012F0800F04D0BB60636D43F0020363658C
:102CF800E26D04239340334209D02268126812F02F
:102D0800020F04D0BB60636D43F004036365E26D9A
:102D180010239340334224D02268126812F0080F1F
:102D28001FD0BB6023681A6812F4802F0DD01B686F
:102D380013F4002F04D1236C9BB12046984710E070
:102D4800A36C73B1204698470BE01A6812F4807F91
:102D580003D11A6822F008021A60236C0BB12046CE
:102D68009847E26D20239340334254D0226812687A
:102D780012F0100F4FD0BB6094F83530052B0ED0F1
:102D880023681A6812F4802F33D01B6813F4002FBD
:102D98002AD1636C002B3ED0204698473BE022683E
:102DA800136823F0160313602268536923F0800325
:102DB8005361236CA3B12268136823F008031360DE
:102DC800E26D3F239340BB60012384F83530002334
:102DD80084F83430236D002B3FD0204698473CE0E0
:102DE800A36C002BE7D1EBE7E36BA3B12046984730
:102DF80011E01A6812F4807F09D11A6822F01002D3
:102E08001A60012384F83530002384F83430E36BEA
:102E18000BB120469847636DFBB1636D13F0010F4A
:102E280017D0052384F835302268136823F001038E
:102E38001360019B01330193AB4204D823681B68DC
:102E480013F0010FF5D1012384F83530002384F8FD
:102E58003430E36C0BB12046984703B0F0BD00BF97
:102E680020000020B5814E1B00230F2B00F2E380C9
:102E780070B582B065E085684FEA430E032404FA12
:102E88000EF425EA0405CC6804FA0EF42C43846099
:102E9800446824EA02044A68C2F300129A402243B2
:102EA80042605CE0DC08083450F8242003F0070591
:102EB800AD004FF00F0E0EFA05FE22EA0E0E0A695B
:102EC800AA4042EA0E0240F824205CE0062200E014
:102ED800002202FA0EF22A430234574D45F8242004
:102EE800564A94686FEA0C0224EA0C054E6816F4F8
:102EF800801F01D04CEA0405504CA560E46802EA42
:102F080004054E6816F4001F01D04CEA04054B4C2A
:102F1800E560646802EA04054E6816F4003F01D0D3
:102F28004CEA0405454C6560246822404D6815F458
:102F3800803F01D04CEA0402404C226001330F2B41
:102F480077D801229A400C6804EA020C32EA040499
:102F5800F4D14C6804F00304013C012C8BD94A6875
:102F680002F00302032A09D0C4685D000322AA40C4
:102F780024EA02048A68AA402243C2604A6802F02E
:102F88000302022A8ED004684FEA430E032202FA93
:102F98000EF224EA02044A6802F0030202FA0EF270
:102FA800224302604A6812F4403FC7D000220192CF
:102FB800234A546C44F480445464526C02F48042B2
:102FC8000192019A9C08A51C1B4A52F8255003F04F
:102FD800030E4FEA8E0E0F2202FA0EF225EA0205C0
:102FE800184A90423FF474AF02F58062904216D0BE
:102FF80002F58062904214D002F58062904212D0AD
:1030080002F58062904210D002F5806290420ED0A4
:1030180002F5806290423FF459AF072259E7012236
:1030280057E7022255E7032253E7042251E7052216
:103038004FE702B070BD704700380140003C0140C6
:1030480000380240000002400369194201D0012003
:103058007047002070470AB1816170470904816197
:103068007047436901EA030221EA030141EA024188
:1030780081617047002800F0CC8070B5044690F854
:103088003D30002B77D0242384F83D302268136824
:1030980023F0010313602268136843F400431360AC
:1030A8002268136823F40043136000F093F9626800
:1030B8005A4B9A4264D85A4B98428CBF002301233A
:1030C800002B40F0A8805749A1FB00318B0C2568E4
:1030D8006A6822F03F0242EA91426A6021680A6AFD
:1030E80022F03F0266684D4DAE424FD8013313437C
:1030F8000B622168CA6922F44F4222F0FF02656818
:10310800464B9D424CD8431E6D00B3FBF5F301338B
:1031180040F6FC70034278D0C3F30B031A43CA612C
:1031280021680B6823F0C003E269206A0243134355
:103138000B6021688B6823F4034323F0FF032269A3
:10314800E068024313438B602168CB6823F0FF03D8
:103158006269A06902431343CB602268136843F095
:103168000103136000202064202384F83D3020638D
:1031780084F83E0070BD80F83C30FEF7A7FC82E77B
:10318800294B98428CBF0023012399E74FF4967589
:1031980005FB03F3254DA5FB03539B090133A6E764
:1031A800A668BEB9431E05EB450CB3FBFCF301331F
:1031B800C3F30B03B3FA83F35B0943BBC6B9431EDE
:1031C80005EB4505B3FBF5F30133C3F30B0343F4F8
:1031D8000043A3E7431E05EB850C0CEB8C0CB3FBFB
:1031E800FCF30133C3F30B03B3FA83F35B09E4E79E
:1031F800431E05EB850505EB8505B3FBF5F30133A8
:10320800C3F30B0343F4404388E7042386E7012311
:1032180084E7012070470120ACE700BFA0860100C9
:103228007F841E0083DE1B43FF083D00D34D6210E0
:1032380082B0002100910B4B5A6C42F480425A64D0
:103248005A6C02F480420092009A01911A6C42F082
:1032580080521A641B6C03F080530193019B02B0E7
:10326800704700BF00380240002800F09B8070B50E
:103278000D4604464F4B1B6803F00F038B4208D2E0
:10328800CBB24C4A1370136803F00F038B4240F023
:103298008B80236813F0020F17D013F0040F04D0AB
:1032A800454A936843F4E0539360236813F0080F8A
:1032B80004D0414A936843F4604393603E4A93685C
:1032C80023F0F003A1680B439360236813F0010F08
:1032D80032D06368012B21D09A1E012A25D9364A9B
:1032E800126812F0020F61D033498A6822F0030293
:1032F80013438B60FEF764FD06462F4B9B6803F073
:103308000C036268B3EB820F16D0FEF759FD801BE1
:1033180041F288339842F0D9032042E0264A1268E5
:1033280012F4003FE0D101203BE0234A126812F07A
:10333800007FD9D1012034E01E4B1B6803F00F0336
:10334800AB4207D9EAB21B4B1A701B6803F00F0394
:10335800AB422DD1236813F0040F06D0164A9368A8
:1033680023F4E053E1680B439360236813F0080FDC
:1033780007D0114A936823F46043216943EAC103E3
:10338800936000F065F80C4B9B68C3F303130B4A7A
:10339800D35CD8400A4B18600A4B186801F008FC47
:1033A800002070BD012070470120FAE70120F8E7EE
:1033B8000120F6E7003C024000380240086100089E
:1033C800200000201C000020014B1868704700BF37
:1033D8002000002008B5FFF7F7FF044B9B68C3F3F4
:1033E8008223034AD35CD84008BD00BF003802409E
:1033F8000061000808B5FFF7E7FF044B9B68C3F3BB
:103408004233034AD35CD84008BD00BF00380240AD
:10341800006100080F2303600B4B9A6802F0030257
:1034280042609A6802F0F00282609A6802F4E05200
:10343800C2609B68DB0803F4E0530361034B1B681D
:1034480003F00F030B60704700380240003C024055
:1034580008B55E4B9B6803F00C03082B03D00C2BBC
:103468005BD05B4833E0594B5A6802F03F025B6817
:1034780013F4800F2CD0554B5868C0F388104FEACE
:10348800401CBCEB000C6EEB0E0E4FEA8E1343EAA9
:103498009C634FEA8C11B1EB0C0163EB0E03DB006C
:1034A80043EA5173C90011EB000C43F10003990280
:1034B80000234FEA8C2041EA9C51FDF727FB434B40
:1034C8005B68C3F3014301335B00B0FBF3F008BD55
:1034D8003E4B5868C0F388104FEA401CBCEB000C08
:1034E8006EEB0E0E4FEA8E1343EA9C634FEA8C1183
:1034F800B1EB0C0163EB0E03DB0043EA5173C90027
:1035080011EB000C43F10003990200234FEA8C20D1
:1035180041EA9C51FDF7FAFAD1E72C4B5A6802F0C0
:103528003F025B6813F4800F2AD0284B5868C0F319
:1035380088104FEA401CBCEB000C6EEB0E0E4FEAF5
:103548008E1343EA9C634FEA8C11B1EB0C0163EBD9
:103558000E03DB0043EA5173C90011EB000C43F181
:103568000003990200234FEA8C2041EA9C51FDF7A1
:10357800CDFA164B5B68C3F30273B0FBF3F0A6E712
:10358800124B5868C0F388104FEA401CBCEB000C83
:103598006EEB0E0E4FEA8E1343EA9C634FEA8C11D2
:1035A800B1EB0C0163EB0E03DB0043EA5173C90076
:1035B80011EB000C43F10003990200234FEA8C2021
:1035C80041EA9C51FDF7A2FAD3E700BF0038024058
:1035D8000024F400002800F0018270B582B004468F
:1035E800036813F0010F41D0994B9B6803F00C035B
:1035F800042B32D0964B9B6803F00C03082B27D082
:10360800934B9B6803F00C030C2B59D06368B3F5FC
:10361800803F5BD0B3F5A02F5ED08D4B1A6822F4A3
:1036280080321A601A6822F480221A606368002BBC
:103638005CD0FEF7C5FB0546854B1B6813F4003FBD
:1036480014D1FEF7BDFB401B6428F5D90320CCE15B
:103658007F4B5B6813F4800FD2D07D4B1B6813F44B
:10366800003F03D06368002B00F0BA81236813F091
:10367800020F60D0764B9B6813F00C0F4AD0744B46
:103688009B6803F00C03082B3FD0714B9B6803F039
:103698000C030C2B69D0E368002B75D06D4B01220D
:1036A8001A60FEF78DFB0546694B1B6813F0020F85
:1036B80061D1FEF785FB401B0228F5D9032094E170
:1036C800634B5B6813F4800FA0D0C6E7604A1368A9
:1036D80043F480331360A9E75D4B1A6842F48022F3
:1036E8001A601A6842F480321A609FE7FEF768FB96
:1036F8000546574B1B6813F4003FB7D0FEF760FB35
:10370800401B6428F5D903206FE1514B5B6813F423
:10371800800FBAD14E4B1B6813F0020F03D0E36839
:10372800012B40F05F814A4A136823F0F8032169AE
:1037380043EAC1031360236813F0080F49D0636993
:10374800002B33D0434B0122C3F8802EFEF738FB01
:1037580005463F4B5B6F13F0020F3AD1FEF730FB83
:10376800401B0228F5D903203FE1394B5B6813F46D
:10377800800F90D1CEE7364A136823F0F803216909
:1037880043EAC1031360D6E7324B00221A60FEF702
:1037980017FB05462E4B1B6813F0020FCBD0FEF724
:1037A8000FFB401B0228F5D903201EE1294B0022FC
:1037B800C3F8802EFEF704FB0546254B5B6F13F01C
:1037C800020F06D0FEF7FCFA401B0228F5D90320A9
:1037D8000BE1236813F0040F76D01D4B1B6C13F01C
:1037E800805F33D100230193194B1A6C42F0805249
:1037F8001A641B6C03F080530193019B0125164B3F
:103808001B6813F4807F29D0A368012B3AD0052BBD
:103818003ED00F4B1A6F22F001021A671A6F22F07E
:1038280004021A67A368002B3CD0FEF7C9FA0646C3
:10383800074B1B6F13F0020F45D1FEF7C1FA801B2F
:1038480041F288339842F3D90320CEE00025D6E729
:103858000038024000004742007000406B4A13687D
:1038680043F480731360FEF7ABFA0646674B1B6898
:1038780013F4807FC8D1FEF7A3FA801B0228F5D97C
:103888000320B2E0624A136F43F001031367C9E7EC
:103898005F4B1A6F42F004021A671A6F42F0010276
:1038A8001A67BFE7FEF78CFA0646594B1B6F13F0F1
:1038B800020F08D0FEF784FA801B41F28833984241
:1038C800F3D9032091E0EDB9A369002B00F08C80B7
:1038D8004F4A926802F00C02082A54D0022B17D0E3
:1038E8004C4B00221A66FEF76BFA0446484B1B68DD
:1038F80013F0007F45D0FEF763FA001B0228F5D9C4
:10390800032072E0424A136C23F080531364DBE710
:10391800404B00221A66FEF753FA05463C4B1B68DB
:1039280013F0007F06D0FEF74BFA401B0228F5D9AA
:1039380003205AE0E369226A1343626A43EA821366
:10394800A26A5208013A43EA0243E26A43EA02637E
:10395800226B43EA02732E4A53602E4B01221A66E9
:10396800FEF72EFA04462A4B1B6813F0007F06D197
:10397800FEF726FA001B0228F5D9032035E00020BF
:1039880033E0002031E0012B31D0214B5B6803F498
:103998008001E26991422CD103F03F02216A8A42F8
:1039A80029D1616A47F6C0721A40B2EB811F24D14F
:1039B80003F44031A26A5208013AB1EB024F1ED11A
:1039C80003F07062E16AB2EB016F1AD103F0E043D1
:1039D800226BB3EB027F16D1002006E0012070476E
:1039E800012002E0012000E0002002B070BD0120AB
:1039F800FBE70120F9E70120F7E70120F5E70120BF
:103A0800F3E70120F1E70120EFE700BF0070004075
:103A180000380240000047422DE9F04782B00546D1
:103A2800884617461E46FEF7CBF90A9B1B1A03EB7E
:103A38000609FEF7C5F98246284B1B68C3F3CB334A
:103A480009FB03F301932B689C6838EA04040CBF54
:103A580001230023BB423DD0B6F1FF3FF3D0FEF770
:103A6800AFF9A0EB0A00484507D2019A02B14A46CD
:103A7800019B013B01939146E5E72A68536823F0CF
:103A8800E00353606B68B3F5827F0BD0AB6AB3F584
:103A9800005F14D0012385F85130002385F8503099
:103AA800032018E0AB68B3F5004F02D0B3F5806F80
:103AB800ECD12A68136823F040031360E6E72A680C
:103AC800136823F4005313602A68136843F40053FF
:103AD8001360DFE7002002B0BDE8F0872000002077
:103AE80070B584B004460D46164600920B46012276
:103AF8000221FFF791FFD0B9174B1B68174AA2FBA9
:103B080003235B0D4FF47A7202FB03F3039363689C
:103B1800B3F5827F11D0039B3BB1039B013B039319
:103B280023689B6813F0800FF5D104B070BD636DF6
:103B380043F0200363650320F7E700962B46002235
:103B480080212046FFF768FF0028EED0636D43F020
:103B5800200363650320E8E720000020819F5E16AC
:103B680000285AD010B50446436A33B94368B3F500
:103B7800827F05D00023C36102E000230361436113
:103B88000023A36294F85130002B40D0022384F81C
:103B980051302268136823F040031360636803F40C
:103BA8008273A26802F404421343E26802F40062DA
:103BB8001343226902F002021343626902F0010210
:103BC8001343A26902F400721343E26902F0380257
:103BD8001343226A02F080021343A26A02F40052DD
:103BE800216813430B60638B03F00403626A02F0DD
:103BF8001002216813434B602268D36923F40063E1
:103C0800D36100206065012384F8513010BD84F829
:103C180050302046FEF770F8B8E7012070472DE9CC
:103C2800F04383B00446884691461F460A9DFEF736
:103C3800C7F8064694F851306268012B0BD0D9B208
:103C4800B2F5827F40F00481A368002B40F0048124
:103C5800042940F00381B8F1000F00F00181B9F1A7
:103C6800000F00F0FF80002F00F0FE8094F8503025
:103C7800012B00F0FB80012384F8503094F8513078
:103C8800042B02D0052384F8513000236365C4F85F
:103C98003890E787A787C4F83080E786A78623642B
:103CA800636423681A6812F0400F03D11A6842F05F
:103CB80040021A60E368B3F5006F11D063680BB176
:103CC800012F0BD1226B236812781A73236B0133EF
:103CD8002363E38E9BB2013B9BB2E386012771E02D
:103CE80063680BB1012F0BD1226B23681288DA604D
:103CF800236B02332363E38E9BB2013B9BB2E386C3
:103D080001271BE023689A6812F0010F0ED0E28F9A
:103D180092B25AB1DA68A36B1A80A36B0233A36319
:103D2800E38F9BB2013B9BB2E3870127FEF748F87C
:103D3800801BA84202D3B5F1FF3F1ED1E38E9BB290
:103D48001BB9E38F9BB2002B62D023689A6812F0EC
:103D5800020FD7D0E28E92B2002AD3D0002FD1D052
:103D6800226B1288DA60236B02332363E38E9BB2E3
:103D7800013B9BB2E3860027C4E7012384F8513056
:103D8800002384F85030032063E023689A6812F017
:103D9800010F0ED0E28F92B25AB1DA68A36B1A7093
:103DA800A36B0133A363E38F9BB2013B9BB2E38711
:103DB8000127FEF705F8831BAB4202D3B5F1FF3F9D
:103DC8001ED1EDB1E38E9BB213B9E38F9BB2FBB169
:103DD80023689A6812F0020FD7D0E28E92B2002AB6
:103DE800D3D0002FD1D0226B12781A73236B0133F2
:103DF8002363E38E9BB2013B9BB2E3860027C4E7B3
:103E0800012384F85130002384F85030032020E047
:103E1800324629462046FFF763FE90B9A36833B9B6
:103E280001932368DA6801929B680193019B01233F
:103E380084F85130002384F85030636D4BB1012071
:103E480007E020236365002384F85030012000E058
:103E5800022003B0BDE8F0830220FAE70220F8E769
:103E68000120F6E70120F4E70120F2E70220F0E75D
:103E780030B4036A026A22F001020262426884696D
:103E880024F0730C0C6844EA0C0423F0020C8B68D1
:103E980043EA0C03114DA84203D005F58065A842FA
:103EA80005D123F00803CD682B4323F004030B4D01
:103EB800A84203D005F58065A84207D122F44072D4
:103EC8004D6945EA020C8A6942EA0C024260846143
:103ED8004A684263036230BC704700BF000001407B
:103EE80030B4036A026A22F4807202624268C469CA
:103EF80024F0730C0C6844EA0C0523F400738C68F6
:103F080043EA0423114CA04203D004F58064A04284
:103F180006D123F40063CC6843EA042323F48063C6
:103F28000A4CA04203D004F58064A04207D122F4D1
:103F380040524C6942EA04128C6942EA0412426017
:103F4800C5614A68C263036230BC70470000014023
:103F580030B4036A026A22F4805202624468C26979
:103F680022F4E6420D6842EA052223F400538D68E4
:103F780043EA0533094DA84203D005F58065A842F8
:103F880004D124F480444D6944EA85144460C26134
:103F98004A680264036230BC704700BF00000140F9
:103FA80010B4036A046A24F001040462846924F0EA
:103FB800F00C4CEA021223F00A030B4382610362FD
:103FC8005DF8044B704710B4036A046A24F01004C7
:103FD8000462846924F4704C4CEA023223F0A00392
:103FE80043EA0113826103625DF8044B70478368FA
:103FF80023F070030B4343F007038360704700000E
:1040080090F83D30012B32D1022380F83D3003680F
:10401800194A934220D0B3F1804F1DD0A2F57C42BB
:10402800934219D002F58062934215D002F580625E
:10403800934211D002F5784293420DD002F57052A6
:10404800934209D0A2F59432934205D01A6842F0FF
:1040580001021A60002070479A6802F00702062AD7
:1040680007D01A6842F001021A6000207047012048
:1040780070470020704700BF0000014090F83D30B5
:10408800012B37D1022380F83D300268D36843F012
:104098000103D3600368194A934220D0B3F1804FDB
:1040A8001DD0A2F57C42934219D002F5806293425A
:1040B80015D002F58062934211D002F578429342FE
:1040C8000DD002F57052934209D0A2F59432934272
:1040D80005D01A6842F001021A60002070479A68F9
:1040E80002F00702062A07D01A6842F001021A6095
:1040F80000207047012070470020704700000140F1
:1041080070470C2914D8DFE801F0071313130A13BA
:1041180013130D13131310000368586B70470368CB
:10412800986B70470368D86B70470368186C7047C2
:104138000020704770477047704770B504460368A1
:10414800DE681D6915F0020F10D016F0020F0DD0B1
:104158006FF002021A610123037703689B6913F069
:10416800030F5ED0FDF7C8FB0023237715F0040F7B
:1041780012D016F0040F0FD023686FF004021A61F2
:104188000223237723689B6913F4407F4FD020468E
:10419800FDF7B2FB0023237715F0080F12D016F0B5
:1041A800080F0FD023686FF008021A6104232377E1
:1041B8002368DB6913F0030F40D02046FDF79CFB12
:1041C8000023237715F0100F12D016F0100F0FD020
:1041D80023686FF010021A61082323772368DB69CC
:1041E80013F4407F31D02046FDF786FB0023237768
:1041F80015F0010F02D016F0010F2DD115F0800F28
:1042080002D016F0800F2FD115F0400F02D016F013
:10421800400F31D115F0200F02D016F0200F33D106
:1042280070BDFFF787FF2046FFF785FF9CE7204614
:10423800FFF780FF2046FFF77EFFABE72046FFF73A
:1042480079FF2046FFF777FFBAE72046FFF772FFAE
:104258002046FFF770FFC9E723686FF001021A6173
:104268002046FDF76BFCC9E723686FF080021A61EE
:10427800204600F09BFCC7E723686FF040021A61F4
:104288002046FFF759FFC5E723686FF020021A613F
:10429800204600F08AFCC3E70368344A904212D0F3
:1042A800B0F1804F0FD0A2F57C4290420BD002F5BE
:1042B8008062904207D002F58062904203D002F5F6
:1042C8007842904203D123F070034A681343274A87
:1042D80090422AD0B0F1804F27D0A2F57C4290427C
:1042E80023D002F5806290421FD002F5806290428E
:1042F8001BD002F57842904217D002F570529042D6
:1043080013D002F5806290420FD002F5806290428D
:104318000BD0A2F59832904207D002F58062904205
:1043280003D002F58062904203D123F44073CA6837
:10433800134323F080034A69134303608B68C36205
:104348000B688362094B984203D003F58063984257
:1043580001D10B69036301234361036913F0010F62
:1043680003D0036923F00103036170470000014093
:1043780040B310B5044690F83D30F3B1022384F8F9
:104388003D30214651F8040BFFF786FF012384F8DE
:10439800463084F83E3084F83F3084F8403084F862
:1043A800413084F8423084F8433084F8443084F84B
:1043B800453084F83D30002010BD80F83C3001F0D5
:1043C80075F9DBE70120704740B310B5044690F853
:1043D8003D30F3B1022384F83D30214651F8040BF7
:1043E800FFF75AFF012384F8463084F83E3084F8FA
:1043F8003F3084F8403084F8413084F8423084F803
:10440800433084F8443084F8453084F83D30002047
:1044180010BD80F83C30FFF773FEDBE701207047E2
:1044280030B4036A026A22F01002026244688269A8
:1044380022F4E6420D6842EA052223F020038D6843
:1044480043EA0513114DA84203D005F58065A8423B
:1044580006D123F08003CD6843EA051323F0400317
:104468000A4DA84203D005F58065A84207D124F477
:1044780040644D6944EA85048D6944EA85044460D2
:1044880082614A688263036230BC70470000014061
:1044980038B590F83C30012B66D004460D46012310
:1044A80080F83C300C2A5AD8DFE802F007595959ED
:1044B8001B5959593059595944000068FFF7D8FC1D
:1044C8002268936943F0080393612268936923F093
:1044D800040393612268936929690B43936100205F
:1044E8003EE00068FFF79CFF2268936943F400638D
:1044F80093612268936923F48063936122689369C6
:10450800296943EA01239361002029E00068FFF745
:10451800E7FC2268D36943F00803D3612268D369B2
:1045280023F00403D3612268D36929690B43D3615B
:10453800002015E00068FFF70BFD2268D36943F4FB
:104548000063D3612268D36923F48063D36122684E
:10455800D369296943EA0123D361002000E00120DF
:10456800002384F83C3038BD0220FCE770B4944640
:10457800066A046A24F0010404628469184DA8429A
:104588001CD0B0F1804F19D0164A904216D002F5CF
:104598008062904212D002F5806290420ED002F5FD
:1045A800784290420AD002F57052904206D0A2F5A5
:1045B8009432904202D044F0010203E024F0030256
:1045C80042EA0C0222F0F0021B01DBB2134326F090
:1045D8000A0201F00A0111438361016270BC70474D
:1045E800000001400004004010B4846824F47F4CAB
:1045F80042EA03220A4342EA0C0282605DF8044B55
:10460800704790F83C30012B78D010B50446012350
:1046180080F83C30022380F83D300268936823F428
:104628007F4323F0770393600B68602B4CD023D82B
:10463800402B54D011D8202B03D00AD80BB1102B03
:1046480005D119462068FFF7D2FC002028E0012098
:1046580026E0302BF5D0012022E0502B0AD1CA6881
:1046680049680068FFF79CFC50212068FFF7BFFCF1
:10467800002015E0012013E0B3F5805F3AD0B3F5D0
:10468800005F14D0702B37D1CB684A6889680068FE
:10469800FFF7AAFF2268936843F07703936000202E
:1046A800012384F83D30002384F83C3010BDCB68EA
:1046B8004A6889680068FFF797FF2268936843F49F
:1046C800804393600020EBE7CA6849680068FFF7F9
:1046D8007AFC60212068FFF78AFC0020E0E7CA68BE
:1046E80049680068FFF75CFC40212068FFF77FFC01
:1046F8000020D5E70020D3E70120D1E7022070474A
:1047080001F01F014FF0010C0CFA01FC036A23EAC7
:104718000C030362036A8A40134303627047000074
:1047280010B504460846002941D194F83E30013BB3
:1047380018BF0123002B6BD100284ED1022384F827
:104748003E30012201462068FFF7DAFF2368324A2B
:10475800934203D002F58062934203D15A6C42F42B
:1047680000425A6423682C4A934246D0B3F1804FE2
:1047780043D0A2F57C4293423FD002F58062934237
:104788003BD002F58062934237D002F578429342DB
:1047980033D002F5705293422FD0A2F5943293424F
:1047A8002BD01A6842F001021A6000202FE0042979
:1047B80007D008290BD094F84130013B18BF0123DA
:1047C800B8E794F83F30013B18BF0123B2E794F8EB
:1047D8004030013B18BF0123ACE7042805D0082866
:1047E80007D0022384F84130ABE7022384F83F3036
:1047F800A7E7022384F84030A3E79A6802F007028B
:10480800062A07D01A6842F001021A60002010BD7B
:104818000120FCE70020FAE70000014001F00F0149
:104828004FF0040C0CFA01FC036A23EA0C03036240
:10483800036A8A401343036270477047002865D0B3
:1048480070B588B00E46044690F83D30002B58D01D
:10485800022384F83D30214651F8040BFFF71CFD74
:10486800B368032231682068FFF780FE22689369E5
:1048780023F00C0393612268936971680B43936179
:104888002268536843F0800353602268936823F0DA
:10489800700393602268936843F040039360226832
:1048A800936823F0070393602268936843F0040336
:1048B8009360002505950695702301930795049547
:1048C8000395F368029301A92068FFF7A9FD226800
:1048D800536823F0700353602268536843F0500311
:1048E8005360012384F8463084F83E3084F83F3022
:1048F80084F8423084F8433084F83D30284608B0C4
:1049080070BD80F83C30FFF798FFA1E701207047A1
:1049180010B5044690F83EC090F83F3090F8422019
:1049280090F84310BCF1010F4FD15FFA8CF0DBB265
:10493800D2B2C9B2012B49D1012A48D1012901D0EB
:10494800104643E0022384F83E3084F83F3084F870
:10495800423084F843302268D36843F00203D360BE
:10496800012200212068FFF7CBFE23681A4A9342F0
:1049780020D0B3F1804F1DD0A2F57C42934219D0CC
:1049880002F58062934215D002F58062934211D0FD
:1049980002F5784293420DD002F57052934209D045
:1049A800A2F59432934205D01A6842F001021A60C7
:1049B80000200BE09A6802F00702062A09D01A685C
:1049C80042F001021A60002000E0012010BD1846E4
:1049D800FCE70020FAE700BF0000014010B50446DC
:1049E800084600293AD194F84230013B18BF012308
:1049F800002B64D1002847D1022384F842300422D6
:104A080001462068FFF70AFF2268536C43F400430D
:104A1800536423682C4A934246D0B3F1804F43D065
:104A2800A2F57C4293423FD002F5806293423BD08C
:104A380002F58062934237D002F57842934233D030
:104A480002F5705293422FD0A2F5943293422BD0A4
:104A58001A6842F001021A6000202FE0042907D0EA
:104A680008290BD094F84530013B18BF0123BFE754
:104A780094F84330013B18BF0123B9E794F8443058
:104A8800013B18BF0123B3E7042805D0082807D045
:104A9800022384F84530B2E7022384F84330AEE7B6
:104AA800022384F84430AAE79A6802F00702062A2B
:104AB80007D01A6842F001021A60002010BD0120D8
:104AC800FCE70020FAE700BF0000014090F83C2016
:104AD800012A3DD010B40346012280F83C2002226E
:104AE80080F83D2002685068946820F0700C0868CF
:104AF80040EA0C0050601A68164882421AD0B2F197
:104B0800804F17D0A0F57C40824213D000F580601A
:104B180082420FD000F5806082420BD000F57840C9
:104B2800824207D000F57050824203D0A0F594303D
:104B3800824204D124F08004496821439160012213
:104B480083F83D20002083F83C005DF8044B704753
:104B58000220704700000140024690F83C30012BCB
:104B680021D0012380F83C30CB6823F44073886857
:104B7800034323F480634868034323F4006308680D
:104B8800034323F480530869034323F4005348691B
:104B9800034323F48043C9690B4311684B64002025
:104BA80082F83C0070470220704770477047000049
:104BB80030B589B0044600230193214B1A6C42F0AA
:104BC80010021A641B6C03F010030193019B02A9E5
:104BD80003A8FEF71FFC069BCBB9FEF7FBFB0346B9
:104BE800184AA2FB03239B0C013B1748174A026093
:104BF80040F2E732C260436000230361836083614F
:104C0800FFF7B6FB054630B1284609B030BDFEF7C0
:104C1800E1FB4300E4E70C48FFF730FA05460028BB
:104C2800F2D13620FDF7BCFE0F2C01D90125EBE7A8
:104C3800002221463620FDF7A3FE054B1C60E3E762
:104C48000038024083DE1B43780400200010004037
:104C58001C000020026802F10C0353E8003F23F017
:104C6800C0030C3242E800310029F3D1202380F838
:104C780041307047026802F10C0353E8003F23F407
:104C880090730C3242E800310029F3D1026802F136
:104C9800140353E8003F23F00103143242E80031C3
:104CA8000029F3D1036B012B05D0202380F8423073
:104CB800002303637047026802F10C0353E8003FC6
:104CC80023F010030C3242E800310029F3D1ECE75D
:104CD80090F84130212B01D0022070478368B3F54A
:104CE800805F17D0036A5A1C02621A7803685A60F8
:104CF800C38C9BB2013B9BB2C3844BB90268D36897
:104D080023F08003D3600268D36843F04003D36084
:104D1800002070470369002BE4D1036A1B880268EE
:104D2800C3F308035360036A02330362E0E7000039
:104D380010B504460268136923F44053C1680B4355
:104D48001361836802691A4343691A43C3691A43A2
:104D58000168CB6823F4164323F00C031343CB609C
:104D68000268536923F4407381690B4353610368F4
:104D7800314A934206D002F58062934202D0FEF790
:104D880029FB01E0FEF736FBE369B3F5004F29D0B4
:104D98000021031849411B1841F10001C90041EAEB
:104DA8005371DB00181863684FEA83024FEA937364
:104DB80041F10001FBF7AAFE204AA2FB0031490994
:104DC800642303FB11031B013233A2FB03235B099A
:104DD80003F0F00202EB011203F00F032168134401
:104DE8008B6010BD0023021843EB0301121841F138
:104DF8000001C90041EA5271D200101841F10001C6
:104E0800626892185B41FBF781FE0C4AA2FB0031F5
:104E18004909642303FB1103DB003233A2FB03239C
:104E28005B095A0002F4F87202EB011203F007035F
:104E3800216813448B60D4E7001001401F85EB51B3
:104E480060B310B5044690F8413013B3242384F8B6
:104E580041302268D36823F40053D3602046FFF71B
:104E680067FF2268136923F490431361226853692A
:104E780023F02A0353612268D36843F40053D360B4
:104E880000206064202384F8413084F84230606355
:104E980010BD80F8403000F07FFDD7E70120704753
:104EA80038B590F84130202B30D1044600292FD056
:104EB8000AB9012038BD01628284C2840023436498
:104EC800212084F84100A06B124DC563A06B124DE0
:104ED8000564A06B114DC564A06B0365206813467B
:104EE800021DA06BFDF742FE23686FF040021A60B6
:104EF800226802F1140353E8003F43F080031432A0
:104F080042E800310029F3D10020D3E70220D1E79D
:104F18000120CFE72B4F0008934F0008A14F00084E
:104F2800704708B50346806B1B681B6813F4807FC5
:104F38001AD10023C384026802F1140353E8003F26
:104F480023F08003143242E800310029F3D10268CB
:104F580002F10C0353E8003F43F040030C3242E8EF
:104F680000310029F3D108BDFFF7DAFFFBE708B5E8
:104F78000168CA6822F04002CA60202280F84120F5
:104F8800FFF7CEFF002008BD704708B5806BFFF71C
:104F9800FBFF08BD7047704710B5846B23685B69D9
:104FA80094F84120212A0FD023685B6903F040035D
:104FB80094F84220222A11D0636C43F010036364F2
:104FC8002046FCF7C9FA10BD03F08003002BEBD094
:104FD8000023E3842046FFF73DFEE5E7002BEBD0F6
:104FE8000023E3852046FFF745FEE5E708B5806B1B
:104FF8000023C385C384FCF7AFFA08BD90F842309C
:10500800222B69D18368B3F5805F4FD0826AB3F5EC
:10501800805F04D0002B56D10369002B53D103685D
:105028005B681370836A01338362C38D9BB2013B53
:105038009BB2C385002B51D100B583B00268D368F9
:1050480023F02003D3600268D36823F48073D3600D
:105058000268536923F001035361202380F842302A
:1050680000234363036B012B33D1002303630268DE
:1050780002F10C0353E8003F23F010030C3242E81E
:1050880000310029F3D103681A6812F0100F06D016
:10509800002201921A6801925B680193019B818D3D
:1050A800FCF758FA002003B05DF804FB0269002AF7
:1050B800ACD1826A03685B68C3F308031380836A10
:1050C80002338362B1E703685B6803F07F03137000
:1050D800A8E7FFF75FFFE5E7022070470020704769
:1050E80010B582B0044602681368D068516913F09D
:1050F8000F0F09D113F0200F0CD010F0200F09D09A
:105108002046FFF77BFF16E011F0010115D110F4DE
:10511800907F12D1216B012979D013F0800F03D031
:1051280010F0800F40F0148113F0400F03D010F0FE
:10513800400F40F0118102B010BD13F0010F06D0EE
:1051480010F4807F03D0626C42F00102626413F0B5
:10515800040F04D019B1626C42F00202626413F0C9
:10516800020F04D019B1626C42F00402626413F0B9
:10517800080F07D010F0200F00D119B1626C42F06F
:1051880008026264626C002AD5D013F0200F02D0A6
:1051980010F0200F29D123685B6903F04003626C8B
:1051A80012F0080F00D163B32046FFF763FD2368B0
:1051B8005B6913F0400F20D0226802F1140353E812
:1051C800003F23F04003143242E800310029F3D1B4
:1051D800E36B73B1624A1A65E06BFDF744FD002882
:1051E800A9D0E06B036D9847A5E72046FFF706FFB7
:1051F800D1E72046FCF7B0F99DE72046FCF7ACF96B
:1052080099E72046FCF7A8F90023636493E713F0B5
:10521800100F82D010F0100F3FF47FAF00230193DE
:105228001368019353680193019B536913F0400F6E
:1052380052D0E26B13685B689BB2002B3FF47BAFE4
:10524800A18D99427FF677AFE385D369B3F5807F67
:1052580037D0226802F10C0353E8003F23F480732F
:105268000C3242E800310029F3D1226802F114031C
:1052780053E8003F23F00103143242E800310029CB
:10528800F3D1226802F1140353E8003F23F04003EE
:10529800143242E800310029F3D1202384F8423047
:1052A80000232363226802F10C0353E8003F23F034
:1052B80010030C3242E800310029F3D1E06BFDF70E
:1052C80089FC02236363A18DE38D9BB2C91A89B25D
:1052D8002046FCF73FF92EE7A18DE38D9BB2C91A52
:1052E80089B2E38D9BB2002B3FF425AF00293FF430
:1052F80022AF226802F10C0353E8003F23F49073B5
:105308000C3242E800300028F3D1226802F114037D
:1053180053E8003F23F00103143242E8003000282C
:10532800F3D1202384F8423000232363226802F15A
:105338000C0353E8003F23F010030C3242E800301E
:105348000028F3D1022363632046FCF703F9F2E651
:105358002046FFF7BDFCEEE62046FFF708FEEAE62A
:10536800F54F000808B5806B01234363036B012BDD
:1053780002D0FFF710FE08BD818D4908FCF7EAF856
:10538800F9E708B50346806B1B681B6813F4807F38
:105398002BD10023C385026802F10C0353E8003FB8
:1053A80023F480730C3242E800310029F3D10268FB
:1053B80002F1140353E8003F23F00103143242E8DA
:1053C80000310029F3D1026802F1140353E8003FC9
:1053D80023F04003143242E800310029F3D120239E
:1053E80080F84230036B012B07D000234363036B23
:1053F800012B0FD0FFF7CEFD08BD026802F10C03A8
:1054080053E8003F23F010030C3242E80031002932
:10541800F3D1EAE7818DFCF79DF8EDE730B583B06D
:10542800044613468162828500254564222280F85D
:105438004220C26B1F48D063E26B1F481064E26BC6
:105448001E48D064E26B156520680A46011DE06BB2
:10545800FDF78CFB019523681A6801925B6801933C
:10546800019B23695BB1226802F10C0353E8003FFA
:1054780043F480730C3242E800310029F3D12268EA
:1054880002F1140353E8003F43F00103143242E8E9
:1054980000310029F3D1226802F1140353E8003FD8
:1054A80043F04003143242E800310029F3D10020D0
:1054B80003B030BD8B5300086D530008A14F00089E
:1054C80008B590F84230202B08D149B10AB901201B
:1054D80008BD00230363FFF7A1FFF9E70220F7E700
:1054E8000120F5E790F84230202B29D110B582B081
:1054F800044639B312B9012002B010BD0123036379
:1055080000234363FFF78AFF0028F5D1236B012BA3
:1055180001D00120F0E70023019323681A68019263
:105528005B680193019B226802F10C0353E8003F7A
:1055380043F010030C3242E800310029F3D1DBE7D5
:10554800022070470120D7E7FEE7FEE7FEE7FEE707
:10555800FEE77047704770477047000008B502487B
:10556800FDF794FB08BD00BF5005002008B50248B0
:10557800FDF78CFB08BD00BFB005002008B5054845
:10558800FCF702FE0448FCF7FFFD0448FCF7FCFDAD
:1055980008BD00BFF8000020B0000020680000200F
:1055A80008B50248FEF7C9FD08BD00BF0805002080
:1055B80008B50248FEF7C1FD08BD00BF0805002078
:1055C80008B50248FEF7B9FD08BD00BF0805002070
:1055D80008B50248FEF7B1FD08BD00BFC0040020B1
:1055E80008B50248FFF77CFD08BD00BF1006002083
:1055F80008B50248FEF7A1FD08BD00BF78040020E9
:10560800034AD2F8883043F47003C2F888307047F0
:1056180000ED00E000B58BB00023069307930893D4
:1056280009930293039304930593009301931D48F0
:105638001D4A02600722426083604FF6FF72C26013
:1056480003618361FEF794FEF8B94FF48053069323
:1056580006A91448FEF7D5FFD0B900230293039397
:105668000A2304930523059302A90E48FFF7E6F8D9
:1056780088B9502300930023019369460948FFF72E
:1056880025FA58B90BB05DF804FBFCF763FADCE7C0
:10569800FCF760FAE1E7FCF75DFAEAE7FCF75AFA8B
:1056A800F0E700BFC00400200004004070B58AB0D5
:1056B80000230593069307930893099303683F4AC9
:1056C800934204D03E4A93423BD00AB070BD0024B6
:1056D80000943C4B5A6C42F001025A645A6C02F036
:1056E80001020092009A01941A6B42F002021A63B6
:1056F8001B6B03F002030193019B4FF48053059346
:10570800022306930123099305A92F48FDF7ACFB53
:10571800224621461820FDF733F91820FDF740F9F5
:10572800224621461920FDF72BF91920FDF738F9F3
:10573800224621461B20FDF723F91B20FDF730F9EF
:10574800C3E7002402941F4B1A6C42F002021A6449
:105758001A6C02F002020292029A03941A6B42F047
:1057680001021A631A6B02F001020392039A04946D
:105778001A6B42F002021A631B6B03F002030493D4
:10578800049BC023059302250695099505AE31466D
:105798000E48FDF769FB01230593069507940894C5
:1057A800099531460848FDF75FFB224621461D2032
:1057B800FDF7E6F81D20FDF7F3F886E70000014045
:1057C800000400400038024000040240000002408B
:1057D80000B587B0002301930293039304930593C4
:1057E80002680F4B9A4202D007B05DF804FB002311
:1057F80000930C4B1A6B42F001021A631B6B03F007
:1058080001030093009B4FF4E0630193022302938A
:105818000123059301A90448FDF726FBE4E700BF2F
:1058280000000140003802400000024030B597B047
:1058380000241294139414941594109411940994B8
:105848000A940B940C940D940E940F9420252A46D8
:10585800214601A800F01EFA4048414B036044600D
:10586800856041F63F73C3604FF480730361012381
:1058780043618461FEF77CFD002854D14FF48053C6
:10588800129312A93548FEF7BCFE00284ED13348C2
:10589800FEF79AFD00284CD100231093119310A90C
:1058A8002E48FFF713F9002846D1602309930022F8
:1058B8000A920B920C920D920E920F9209A9274808
:1058C800FEF7E6FD00283AD1042209A92348FEF78D
:1058D800DFFD002836D1082209A92048FEF7D8FDA7
:1058E800002832D17023099341F63E730A930C22A3
:1058F80009A91A48FEF7CCFD50BB00230193029377
:10590800039304934FF4805205924FF40052069289
:10591800089301A91148FFF71FF9E0B90F48FFF7ED
:1059280057FF17B030BDFCF715F9A7E7FCF712F9D8
:10593800ADE7FCF70FF9AFE7FCF70CF9B5E7FCF7B3
:1059480009F9C1E7FCF706F9C5E7FCF703F9C9E768
:10595800FCF700F9D1E7FCF7FDF8DFE708050020C0
:105968000000014008B50A480A4B03604FF4612360
:10597800436000238360C36003610C22426183613A
:10598800C361FFF75DFA00B908BDFCF7E3F8FBE770
:1059980010060020004800402DE9F04788B0002399
:1059A800039304930593069307930268414B9A4225
:1059B80002D008B0BDE8F08704460025009503F53D
:1059C800F8331A6C42F480221A641A6C02F48022AA
:1059D8000092009A01951A6B42F004021A631A6B3E
:1059E80002F004020192019A02951A6B42F0020237
:1059F8001A631B6B03F002030293029B2023039399
:105A08004FF0020ACDF810A04FF00309CDF8189016
:105A18004FF00708CDF81C8003AF39462648FDF73C
:105A280023FA4FF480660396CDF810A00595CDF8BB
:105A38001890CDF81C8039462048FDF715FA204803
:105A4800204B03604FF00063436040238360C560D0
:105A5800066145618561C56105624562FDF720F80B
:105A680010BB174BA3639C631748184B03604FF098
:105A78000063436000238360C3604FF48062026167
:105A880043618361C36103624362FDF709F870B93A
:105A98000D4BE3639C63002211462720FCF770FF3F
:105AA8002720FCF77DFF84E7FCF754F8D9E7FCF7DB
:105AB80051F8EDE7004800400008024000040240A9
:105AC800B0050020586002405005002028600240C0
